:020000040000FA
:0600000028EF19F01200C8
:020006001200E6
:0600080004EF08F01200F5
:060018000CEF08F01200DD
:02001E000200DE
:100020009D320000C9050000180000008232000067
:08003000AE0500001B000000FA
:0800380053EC06F0A09A6A6A7D
:10004000686A706A9EEC05F0EBEC05F0DF6AD4ECB0
:1000500005F003E284EC05F0FAD76D8C6E6A6D98BA
:100060006D9C68A607D068960501936B986B996B99
:100070009A6BF7D70501010EAA6FAB6FAC6BAD6B36
:10008000A06BDF6A020EDF5C11E2EA6ADF3456EC35
:1000900006F0EA22EE6AED6AEA6ADF345DEC06F009
:1000A000EA22EE6AED6A94EC05F0ECD70501080E41
:1000B0008B6F040E8C6F160E706E0401200E026F93
:1000C000040E036F080E016F840E006F0501816B33
:1000D000806BE5525EEF05F053EC06F005018005FC
:1000E00007E16DBA05D0686A69806988020E806F81
:1000F0006850040B05E06950040B02E0689491D845
:100100006DB23ED06850010B09E06950010B06E06A
:1001100093DFA08A0501040E806F68906850100B71
:1001200005E06950100B02E071D8689868AC08D0FF
:1001300069AC05D0F2EC05F0730E4BEC05F0689C51
:100140006850200B04E06950200B01E04CD8685047
:10015000020B0BE06950020B08E0F2EC05F0E668D8
:100160007F0EE66E64EC06F06A6A040E0501E76E27
:100170008019E8AE02D0E73402D0E750805D02E299
:10018000A19A2ED069A62BD0DF6A040EDF5C27E28D
:1001900068A625D06CCFA1F50501A151780BE842E6
:1001A000E842E842A26F6896A1B504D0A2516BEC78
:1001B00006F003D0A25170EC06F0EA22EF70A251D3
:1001C00002E13DD80AD0000EE66EE66AA10EE66EA8
:1001D000050EE66E720E4BEC05F0DF2AD6D7A19A1B
:1001E000E5525EEF05F070A00FD06AEC05F0EF501D
:1001F000800809E154EC05F0EF50840804E16AEC52
:1002000005F08C0EEF6E7090689A12006984689801
:100210006D820501010EA06FBAEC05F0750E4BEF73
:1002200005F00501A06BBAEC05F0740E4BEC05F07F
:100230006D92699468A402D06894FCD7120053ECC4
:1002400006F0FD0E0501A11540E17E0EA115E84066
:100250007F0B040DF3CF83F5F4CF84F5000E8327D5
:10026000040E842383C585F584C586F585756AECFF
:1002700005F0EF503C0BE842E8420D0824E1DF6A4C
:10028000080EDF5C1AE26AEC05F0020EE926000EA9
:10029000A7EC05F0EF50E66EDF50EA6A200FE96E3A
:1002A000040EEA22E552E750EF6E6AEC05F07FECAF
:1002B00006F0EE2AEF22DF2AE3D76AEC05F01FEC06
:1002C00006F00BD807D026D805D0FD0EA1150408DE
:1002D00001E12FD8E5525EEF05F005018F6BA96BA8
:1002E000AC6BAD6BA36B906BDFDBEF9E8B75DCDBD8
:1002F000EF9E8B750EEC06F0EF9E936B946B956BF7
:10030000986B996B9A6B50D8BAEC05F0030EC3DB6F
:1003100075EF03F0020E0501905D02E1E1EF03F0DD
:10032000906BA35104E1AEDB8C0EEF6E1200A36B59
:10033000120053EC06F0B8DBEF50400B01E0010E69
:10034000DF6E05018B75080E805D08E122C46EFF2B
:100350006E5002E0100E01D0040E806F900513E184
:10036000A3DBBDDBEFD9020E05018F5D03E19CDB52
:10037000840E07D0DF5003E197DBC80E02D094DB78
:10038000880EEF6E0FD098AF0CD09B519C1107E0F8
:1003900005D09CC5FAFF05019B51F96EFADF0501F6
:1003A000989F906BE5528AD304012051600BE8427C
:1003B000E842E842E842E842000901E01200215127
:1003C0000C0A45E00B0A3FE00C0A31E0010A22E08A
:1003D0000B0A1EE0020A1CE0030A18E0080A10E0FB
:1003E000010A0CE00F0A08E0030A01E0120005010F
:1003F000938F080E806F120000EF03F045EF04F0BA
:100400000501810E916F050E926F0CD03DEF03F048
:1004100028EF02F024510501916F926B820E912713
:10042000050E92239381010E946F938F12000501A4
:10043000938F04012451EA6A820FE96E050EEA22C5
:1004400022C4EFFF120096DB020E4BEF05F0120004
:1004500030DB050EE1260401220510E120511F0BBF
:1004600000090CE10501938F030E0401215D04E1F5
:100470000501010E9F6F02D005019F6B04012251FF
:1004800001E075D020511F0B020871E124510F0BC0
:1004900000096DE024510F0B010869E3200E0501EE
:1004A000805D65E1938F040124BF04D0E3DB68DB4A
:1004B0006DDB03D0E4DB64DB6DDBEA22020EEFCF01
:1004C000DBFF97DB010B03E1000EDF9401D0DF843B
:1004D00024BF02D0CFDB01D0D2DBEA22DECFEEFF99
:1004E000DDCFEDFF030E215D0DE1CEDB07E024BF84
:1004F00002D04CDB01D04EDBEA22EF82840E84EC8A
:1005000006F035D0DF74C0DB06E0C9DAEF9EC7DA4B
:10051000EF8C9FDB02D0C3DAEF8CDF746ADB020B57
:1005200002E1B2DB0DE0040124BF02D02FDB01D0D9
:1005300031DBEA22EF923B0E006ED7DB8ADB02D082
:100540003B0ED3DB040124510F0B016A700F006EC8
:100550000F0E0122030E00C0DBFF040E01C0DBFF03
:10056000030EDBCFE9FF040EDBCFEAFFEF90050EB1
:10057000E15C02E2E16AE552E16EA0D20501AA5116
:1005800021E1010EAA6FAB511DE1010EAB6F020E0E
:10059000905D07E189DAEE52EF6A86DAC80EEF6EF7
:1005A000120090050FE1A36B95DAEE52080EEF6E84
:1005B00091DA45DB8FDA840EEF6E010EA36F62DAFB
:1005C000800EEF6E12000501AC6BAD6B020E905DFC
:1005D00004E18FDB84DA22DB10D094510401265D24
:1005E000050195510401275904E226C494F527C456
:1005F00095F5A8D859DA73DA57DAC80EEF6E1200FB
:10060000800E0401205D38E10501C00E936F0401E6
:100610002351030A1AE0010A09E0030A2BE105014C
:10062000760E916F0E0E926F120E1ED0F0DAFB0E48
:10063000F6260E0EC1DA020E0501E2DAF5CF94F5C8
:10064000030EDEDAF5CF95F51200030E225D0FE200
:10065000DEDAFD0EF6260E0EAFDA91C5F6FF92C574
:10066000F7FF0800F5500501946F956B1200050126
:10067000936B12000501936B1200E7DA0401286BFB
:10068000296B20511F0B020A0EE0030A09E0010A40
:100690001BE10501938F9F0517E10401288314D006
:1006A0000501938F11D00501938F040124BF02D05F
:1006B000E1DA01D0E4DA64DAE7DA06E0F0D9EF5003
:1006C000040B02E0010E286F050193AF07D0280E3E
:1006D000916F040E926F9381020E946F020EE15C93
:1006E00002E2E16AE552E16EE9D16D98050193BF3E
:1006F0000DD098AF09D0020E906FAD5101E163DFCC
:100700000501AB6BAA6B120033EF06F0040120AFBA
:100710000DD00501010E906FAC5101E154DF0501D0
:10072000AB6BAA6BA9510DE1BEEF02F00501020E01
:10073000906FA8D9840EEF6EAB6BAA6BA95101E143
:100740001DDF1200B0DA080EDF6E0501945D000EA9
:1007500095590AE294C5DFFF8F5102E1010E03D0E3
:100760008F0502E1020E8F6FDF50016AE850945D41
:10077000946F01509559956F97D9EE52DFCFEFFFE7
:10078000280E9D6F040E9E6F93B10DD0DF5017E0C1
:1007900091C5F6FF92C5F7FF912B000E922308003A
:1007A000F550DBD9F3D7DF500AE091C5E9FF92C5D8
:1007B000EAFF912B000E9223EF50CFD9F4D7E552E8
:1007C0007DD143DA87D9EE52EFCFDFFFDFCF00F0E4
:1007D00000500501995D000E9A5902E299C5DFFFAC
:1007E000DF50006E016AE850995D996F01509A5987
:1007F0009A6F010EDB6ADF50F36E010EDBCFF4FF60
:10080000F350F45C16E2010EDB50EA6A280FE96E41
:10081000040EEA22EF50E66E96C5E9FF97C5EAFF9F
:10082000962B000E9723E552E750EF6E010EDB2A60
:10083000E2D7000ED8809955000E9A550DE259DA8C
:100840004ED948D9EF50400B03E1E8D9C80E02D089
:10085000E5D9880EEF6E12D015D9840EEF6E9B513C
:100860009C1107E005D09CC5FAFF05019B51F96E6C
:10087000FADF0501989FA95101E180DE020EE15CDB
:1008800002E2E16AE552E16E19D10DDA0501938FBA
:1008900055D9DF6A89D902E237D9FCD76D8CDF6A76
:1008A000020EDF5C02E240D9FBD7010EE66EE66A7B
:1008B000E66A820EE66E050EEED96D9C0501080E05
:1008C0008B6F040E8C6F000E836F040E846F83C5D4
:1008D00085F5866F22C481F5815102E1100E0BD09F
:1008E000010EE66EE66A810EE66E050EE66E010EFC
:1008F000D2D80501200E806FE552E0D0A6D9000EB7
:10090000DE6E040EDD6EF1D8040DF4CF01F0D9CF08
:10091000E9FFDACFEAFFF350EE260150ED22BFD80F
:10092000EF9EFD0EDB5002E1EAD801D0AFD8EA22FB
:10093000DECFEEFFDDCFEDFFB2D8EF9CB0D8040ED6
:10094000E926000EEA22EF8C020EE15C02E2E16A87
:10095000E552E16EB3D079D9FD0EDBA402D0E66A90
:1009600033D9FD0EDBA203D0010EE66E2DD9FE0EAB
:10097000DB50016A700F006E0F0E10D990D8FD0E7B
:10098000DBCFEFFF020EE15C02E2E16AE552E16ECD
:1009900095D05BD9FE0EDB5002E165D905D0A5D814
:1009A00042D9A3D8010F3FD9020EE15C02E2E16A0D
:1009B000E552E16E83D049D9FD0EDB5002E066D8E6
:1009C00001D09DD8DDD8D9CFE9FFDACFEAFFEE50CC
:1009D000ED1003E1F36AF46A21D061D890D9FB0EDF
:1009E000DBCFEEFFFC0EDBCFEDFF59D8EE52FA0E57
:1009F000DBCFEFFF400E79D9880E86D9FD0EDB5094
:100A000002E044D801D07BD8EA22EF74DECF00F0B8
:100A1000DDCF01F000C0F3FF01C0F4FF020EE15C86
:100A200002E2E16AE552E16E49D043D86DA812D0E6
:100A30002FD9400EEE16EE6AEE6AEE6A29D9EE7CE8
:100A400025D8EA22EF74400E006E22D90050EF162E
:100A50001FD9EF7C33D06D6A696A0501806B120083
:100A6000050180510EE16D6A696AB5D8D08EA28AFF
:100A7000A08AF28E6DB602D06D86FCD70501010EFC
:100A8000806F120036D9DBD80EEF06F0FE0EEA6A50
:100A9000DB3456EF06F0E66EE66A64EF06F0DECF72
:100AA000E9FFDDCFEAFF12008BC5E9FF8CC5EAFF45
:100AB0001200D9CFE6FFE1CFD9FF1200E552E7CF10
:100AC000D9FF120024510F0BE96EEA6AD890E9367B
:100AD000EA36120083C5E9FF84C5EAFF12000FD988
:100AE000280EEE6E040EED6E1200FD0EDB50E824B3
:100AF000026EFE0EDB50040DF35002241200FE0EB7
:100B0000EA6ADB345DEF06F0DF50040DF3CFE9FF56
:100B1000F4CFEAFF000EE926040EEA22EE6AEE6A3E
:100B2000EE6AEE6ADF2A1200DF50DAD8EA22EF6AB4
:100B3000DF50D1D8EA22EF6ADF2A1200010EE66EFA
:100B4000E66AE66A710EE66E0F0E4BEF06F0EA22D9
:100B5000EE50EFCFEAFFE96E1200E66E9DC5E9FFA9
:100B60009EC5EAFF9D2B000E9E23E552E750EF6ED7
:100B7000DF061200000EE66EE66AE66EE66A120016
:100B8000EA22EECFDEFFEDCFDDFF120024510F0B86
:100B90006BEF06F024510F0B70EF06F0012200C03E
:100BA000DEFF01C0DDFF1200DF50006E016A080E9B
:100BB000005C000E01581200F7220900F5CF91F5F4
:100BC0000A00F5CF92F51200FE0EDBCFE6FF96DEAF
:100BD000E552E5521200160E6F6E9F0E6B6E7B0E85
:100BE000696E1200010EE66EE66A000EE66EE66AB7
:100BF0001200D950020FE96EDACFEAFFEF5012006F
:100C0000F76A9125F66E9251F722080012002251E0
:100C1000F66EF76AD890F636F736120085C5E9FF0A
:100C200086C5EAFF1200040DF3CF00F0F4CF01F007
:100C3000000E0026040EB2DF840E84EF06F05FD8AB
:100C4000200EEE6E040EED6E120033DF020EE12672
:100C50001200020EE66EE66ADECFE6FFDDCFE6FFAB
:100C6000050E4BEF05F00EDF8C0EEF6E1DDF840ED0
:100C7000EF6E120027DF870EE926050E120022DF35
:100C80008B0EE926050E12000ADFEF50800B1200D2
:100C9000FDDEA7EF05F0E66ED2EC07F0006E050E64
:100CA000E15E0050120005DFE6521200FE0BEA364C
:100CB000E96E8B0EE926050E1200FE0BEA36E96E90
:100CC000870EE926050E120028EC11F0006E060EC4
:100CD000E15E00501200EA6AA60FE96E050E1200EE
:100CE000EA6AA40FE96E050E1200D9DEE850EF168D
:100CF000120094DFEE52080EEF6E0EEF06F0020EB9
:100D0000E926000EEA221200CADEE850EF121200B5
:100D1000040120511F0B010801E01200245101E0E1
:100D20001200060E215D1EE12351230A1BE0010A79
:100D30000CE0030A17E10501810514E105019A0E93
:100D4000916F0E0E926F090E09D0050181050AE11F
:100D50000501DF0E916F0E0E926F1C0E946F956B56
:100D6000C00E936F04012051600BE842E842E84254
:100D7000E842E842010801E0120021510B0A26E096
:100D8000080A19E0090A11E0080A05E00B0A23E045
:100D9000080A21E012000501EB0E916F050E926F1B
:100DA000010E946F956BC10E0FD00501800E936FED
:100DB00023C4EBF512000501EC0E916F050E926F46
:100DC000010E946F956B810E936F12000501800EDA
:080DD000936F22C4ECF5120040
:080DD8001E0EF66E000EF76E10
:100DE000000EF86E05010900F550E66F0900F55098
:100DF000E76F03E1E66701D03DD00900F550E16FF0
:100E00000900F550E26F0900F550E36F0900090091
:100E1000F550E96E0900F550EA6E09000900090075
:100E2000F550E46F0900F550E56F09000900F6CFB1
:100E3000E8F5F7CFE9F5F8CFEAF5E1C5F6FFE2C549
:100E4000F7FFE3C5F8FF0501E45302E1E55307E0CE
:100E50000900F550EE6EE407F8E2E507F9D7E8C5BA
:100E6000F6FFE9C5F7FFEAC5F8FF0501E607000E42
:060E7000E75BBFD7120092
:0A0E76001201000200000008D80479
:100E80002F0002000102000109022900010100C037
:100E900032090400000203000000092111010001D1
:100EA000221C0007058103400001070501034000E3
:100EB0000104030904100349002D004D00450044BE
:100EC00000490041001A035500530042005F004DE5
:100ED000006900660061007200650052005700065C
:100EE00000FF0901A10119012940150125407508DC
:100EF00095408100190129409100C0880EB10EB5BE
:030F00000EC50E0D
:0C0F0400D9CFE6FFDACFE6FFE1CFD9FF3E
:100F1000E2CFDAFF3F0EC716C66AFD0EDB50C612DF
:100F2000FB0EDB50C712FC0EDB50030A09E0010A7E
:100F300004E0020A06E1C78C04D0C78CC68801D041
:100F4000C688FD0EDB50050A03E0010A03E1928A20
:100F5000938201D093929380949EC68AE552E5CF06
:080F6000DAFFE7CFD9FF120010
:080F6800D9CFE6FFDACFE6FF66
:100F7000E1CFD9FFE2CFDAFFE652C950DF6E9E968D
:100F8000C69EFD0EDB50C96EC6AE02D0FF0E03D06A
:100F90009EA6FED7000EE552E552E5CFDAFFE7CF79
:040FA000D9FF120063
:0C0FA400FE0EE3CFE9FFFF0EE3CFEAFFF3
:100FB000E9CFF3FFEACFF4FFFB0EE35003E1FC0EB1
:100FC000E35009E0FB0EE30602E2FC0EE306FD0E31
:080FD000E350EE6EF1D71200B0
:080FD800FF0EE350276E480EE6
:100FE00001D04C0EE76EE72EFED7E76AE72EFED75C
:080FF000272EF7D700001200C4
:0610000028EF19F01200B8
:02100600FFFFEA
:061008000FEF08F01200DA
:021016000001D7
:061018005AEF08F012007F
:02101E00DACF27
:10102000E4FFE2CFDAFFE9CFE4FFEACFE4FFF6CF57
:10103000E4FFF7CFE4FFF5CFE4FFF3CFE4FFF4CF15
:10104000E4FFFACFE4FF00EE1BF00B0EE80403E32D
:10105000EECFE4FFFBD700EE00F01B0EE80403E345
:10106000EECFE4FFFBD7E6526CEC00F0E55200EE69
:101070001AF01B0EE80403E3E5CFEDFFFBD700EE0B
:1010800025F00B0EE80403E3E5CFEDFFFBD7E5CF3A
:10109000FAFFE5CFF4FFE5CFF3FFE5CFF5FFE5CFAE
:1010A000F7FFE5CFF6FFE5CFEAFFE5CFE9FFE5CFB4
:1010B000DAFF1100D8CFE4FFE0CFE4FFE46EDACF2F
:1010C000E4FFE652E552E5CFDAFFE550E5CFE0FF79
:1010D000E5CFD8FF100006D8A8EC13F030EC05F0EF
:1010E00021D8FED7896A8A6A8B6A926A936A946A5F
:1010F000800EE66EE66A020EE66E82EC07F0E552BE
:10110000E552E5520501C96BCA6BCB6BCC6B89828A
:1011100089908994010ECD6F1CEC00F00001010E46
:10112000FD6F12000501CE6BCF6BD06BD16B05014B
:10113000D36B0501D46B0501D56B0501D66BB9ECFA
:1011400010F0200E0501E76E8019E8AE02D0E734FA
:1011500002D0E750805D03E36D50020B02E0B8EF70
:1011600010F00501C951CA1102E1000E08D0C9C52D
:10117000E9FFCAC5EAFFEF50800B01E0010E00094C
:1011800002E06EEF10F005010051790A02E11CEF58
:1011900010F0010A02E1DEEF0FF02D0A02E1CEEFBE
:1011A0000FF0050A02E16CEF0DF0070A01E15AD1D8
:1011B000040A01E115D1180A01E1D2D0080A63E05E
:1011C000110A02E05BEF10F00501BF6B0501C06B77
:1011D0000501C16B0501C26B0501C36B8980050167
:1011E000D66B0501D36B0501D46B0501D56B0001EE
:1011F000010EB56F0001B46B0501BF5116E1BFECE4
:1012000013F00501D32B0A0E0501D35D0DE18972A0
:101210000501D36B0501D62B140E0501D65D04E143
:1012200072EC11F0B8EF10F0E7D7DAEC11F0020829
:1012300002E05BEF10F00501CB51CC1102E1000E92
:1012400008D0CBC5E9FFCCC5EAFFEF50800B01E029
:10125000010E000914E1400EE66E400EE66E050E2A
:10126000E66E010EE66E010EE66EDBEC04F0006E3B
:10127000050EE15E0050F3CFCBF5F4CFCCF5C5EC15
:1012800011F05BEF10F00501BF6B0501C06B0501AC
:10129000C16B0501C26B0501C36B89800501D66B6B
:1012A0000501D36B0501D46B0501D56B0001010E5F
:1012B000B56F00010C0EB46F0501BF5116E1BFEC14
:1012C00013F00501D32B0A0E0501D35D0DE18972E0
:1012D0000501D36B0501D62B140E0501D65D04E183
:1012E00072EC11F0B8EF10F0E7D70501D66B400EA5
:1012F0000501D65D0BE20501D651EA6A400FE96EA1
:10130000050EEA22EF680501D62BF1D7F7EC12F0B3
:101310000501CB51CC1102E1000E08D0CBC5E9FF8D
:10132000CCC5EAFFEF50800B01E0010E000914E18B
:10133000400EE66E400EE66E050EE66E010EE66E9F
:10134000010EE66EDBEC04F0006E050EE15E00506F
:10135000F3CFCBF5F4CFCCF5C5EC11F05BEF10F08B
:101360000501010ED76F0501D66B400E0501D65D54
:101370000BE20501D651EA6A400FE96E050EEA223A
:10138000EF680501D62BF1D705014F0E406F05011F
:101390004B0E416F0501CB51CC1102E1000E08D07C
:1013A000CBC5E9FFCCC5EAFFEF50800B01E0010E91
:1013B000000914E1400EE66E400EE66E050EE66E84
:1013C000010EE66E010EE66EDBEC04F0006E050E1B
:1013D000E15E0050F3CFCBF5F4CFCCF55BEF10F02E
:1013E0000501D70502E10501D76B0501D66B400E5B
:1013F0000501D65D0BE20501D651EA6A400FE96EA0
:10140000050EEA22EF680501D62BF1D705014F0E34
:10141000406F05014B0E416F0501CB51CC1102E12C
:10142000000E08D0CBC5E9FFCCC5EAFFEF50800B1A
:1014300001E0010E000914E1400EE66E400EE66E7A
:10144000050EE66E010EE66E010EE66EDBEC04F0B4
:10145000006E050EE15E0050F3CFCBF5F4CFCCF576
:101460005BEF10F00501BF6B0501C06B0501C16B9F
:101470000501C26B0501C36B89800501D66B400E67
:101480000501D65D0BE20501D651EA6A400FE96E0F
:10149000050EEA22EF680501D62BF1D75BEC17F0B9
:1014A0000001B46B0001010EB56F0501D66B05019B
:1014B000D36B0501D46B0501D56B0501BF5116E156
:1014C000BFEC13F00501D32B0A0E0501D35D0DE12E
:1014D00089720501D36B0501D62B140E0501D65D6B
:1014E00004E172EC11F0B8EF10F0E7D70001B56B32
:1014F0000501CB51CC1102E1000E08D0CBC5E9FFAC
:10150000CCC5EAFFEF50800B01E0010E000901E0BD
:10151000E2D20501490E406FBFC541F5C0C542F595
:10152000C1C543F5C2C544F5C3C545F55BEC17F02D
:101530000501D66B100E0501D65D2BE21F0E0501CD
:10154000D625EA6A000FE96E050EEA22EF50E66E34
:101550000501D651EA6AD50FE96E000EEA22E5527E
:10156000E750EF6E2F0E0501D625EA6A000FE96EEF
:10157000050EEA22EF50E66E0501D651EA6AE50F44
:10158000E96E000EEA22E552E750EF6E0501D62B18
:10159000D1D70001B46B0001020EB56FBFEC13F0A0
:1015A0005BEC17F0470E0501015D10E0480E0501E8
:1015B000015D0CE04D0E0501015D08E0530E0501D3
:1015C000015D04E0500E0501015D03E101C5C6F0B7
:1015D00004D072EC11F05BEF10F00501D66B050E34
:1015E0000501D65D17E2150E0501D625EA6A000F42
:1015F000E96E050EEA22EF50E66E0501D651EA6A61
:10160000D50FE96E000EEA22E552E750EF6E0501B4
:10161000D62BE5D70001040EB46F0001020EB56FA2
:10162000BFEC13F05BEC17F005010239F00B000181
:10163000C56F0F0E050103150001C527050104390B
:10164000F00B0001C66F0F0E050105150001C6273E
:1016500005010639F00B0001C76F0F0E05010715D4
:101660000001C72705010839F00B0001C86F0F0EF4
:10167000050109150001C82705010A39F00B000111
:10168000C96F0F0E05010B150001C9270001CA6BB8
:10169000300E05010C5D0501CE6FCF6B0501100EFC
:1016A000CF03F3CFCFF5270ECE03F350CF27100E85
:1016B000CE03F3CFCEF5F450CF270501D06BD16B1D
:1016C000CFAF02D0D069D169300E05010D5D006E3B
:1016D000016AE80E0102F3CF01F0030E0002F3509D
:1016E0000126E80E0002F3CF00F0F4500126026A52
:1016F000036A01AE02D00268036800500501CE27DC
:1017000001500501CF2302500501D02303500501EC
:10171000D1230EC5D2F50501D251300817E2300EA3
:101720000501D25D0501D26F0501D2510FE0640EB3
:101730000501CE27000E0501CF23000E0501D023A1
:10174000000E0501D1230501D207EED7300E0501A9
:101750000F5D0A0DF3CF00F0000100500501CE2708
:10176000000ECF23D023D123300E0501105D006E73
:10177000000100500501CE27000ECF23D023D12336
:10178000CFC500F0D0C501F0D1C502F00001036A59
:1017900000C0CBF00501CE510001CC6F0501080E51
:1017A000D66F0C0E0501D65D17E2090E0501D62590
:1017B000EA6A000FE96E050EEA22EF50E66E0501B7
:1017C000D651EA6AC50FE96E000EEA22E552E750EB
:1017D000EF6E0501D62BE5D70001080EB46F0001AE
:1017E000020EB56FBFEC13F05BEC17F00001B46BA9
:1017F0000001010EB56F0501BF6B0501D66B050138
:10180000D36B0501D46B0501D56B0501BF5116E102
:10181000BFEC13F00501D32B0A0E0501D35D0DE1DA
:1018200089720501D36B0501D62B140E0501D65D17
:1018300004E172EC11F0B8EF10F0E7D70501BF51E9
:101840000501415D14E10501C0510501425D0FE153
:101850000501C1510501435D0AE10501C2510501C0
:10186000445D05E10501C3510501455D04E072ECED
:1018700011F05BEF10F05BEC17F00001040EB46F99
:101880000001010EB56F0501BF6B0501D66B0501A7
:10189000D36B0501D46B0501D56B0501BF5116E172
:1018A000BFEC13F00501D32B0A0E0501D35D0DE14A
:1018B00089720501D36B0501D62B140E0501D65D87
:1018C00004E172EC11F0B8EF10F0E7D75BEC17F021
:1018D0000001080EB46F0001010EB56F0501BF6B6A
:1018E0000501D66B0501D36B0501D46B0501D56BE2
:1018F0000501BF5116E1BFEC13F00501D32B0A0E11
:101900000501D35D0DE189720501D36B0501D62B6D
:10191000140E0501D65D04E172EC11F0B8EF10F081
:10192000E7D7F00E0001C515006E05010239F00B76
:10193000005C01E0A3D00F0E0001C515016E0F0E73
:1019400005010315015C01E099D0F00E0001C615F8
:10195000026E05010439F00B025C01E08FD00F0E1E
:101960000001C615036E0F0E05010515035C01E0AD
:1019700085D0F00E0001C715046E05010639F00B85
:10198000045C01E07BD00F0E0001C715056E0F0E41
:1019900005010715055C72E1F00E0001C815066E21
:1019A00005010839F00B065C69E10F0E0001C8154E
:1019B000076E0F0E05010915075C60E1F00E0001CE
:1019C000C915086E05010A39F00B085C57E10F0EC6
:1019D0000001C915096E0F0E05010B15095C4EE1DA
:1019E0000001CA514BE1CBC00AF00B6A0C6A0D6AC8
:1019F000CFC50EF0D0C50FF0D1C510F00001116AAF
:101A00000A500E1809E10B500F1806E10C5010187F
:101A100003E10D50111800E131E1CCC012F0136A5E
:101A2000146A156ACEC516F0CFC517F0D0C518F0E8
:101A3000D1C519F0176A186A196A1250161809E107
:101A40001350171806E11450181803E1155019180F
:101A500000E114E1050111510001CD5D0FE1050127
:101A600012510001CE5D0AE1050113510001CF5D65
:101A700005E1050114510001D05D03E072EC11F0A5
:101A80001AD30501CB51CC1102E1000E08D0CBC511
:101A9000E9FFCCC5EAFFEF50800B01E0010E000921
:101AA00018E1FF0E0501405D14E0400EE66E400EA9
:101AB000E66E050EE66E010EE66E010EE66EDBECDE
:101AC00004F0006E050EE15E0050F3CFCBF5F4CFCD
:101AD000CCF5C5EC11F0EFD20501BF6B0501C06B71
:101AE0000501C16B0501C26B0501C36B898205014C
:101AF000D66B400E0501D65D0BE20501D651EA6AB0
:101B0000400FE96E050EEA22EF680501D62BF1D7EA
:101B10005BEC17F000010C0EB46F0001010EB56F05
:101B20000501D66B0501D36B0501D46B0501D56B9F
:101B30000501BF5114E1BFEC13F00501D32B0A0ED0
:101B40000501D35D0BE189700501D36B0501D62B2F
:101B50000A0E0501D65D02E1C5DB01D0E9D700011F
:101B6000B56B0501CB51CC1102E1000E08D0CBC5FD
:101B7000E9FFCCC5EAFFEF50800B01E0010E000940
:101B800001E00BD20501490E406FBFC541F5C0C54C
:101B900042F5C1C543F5C2C544F5C3C545F55BEC87
:101BA00017F005010139F00B0001C56F0F0E05019B
:101BB00002150001C52705010339F00B0001C66FAE
:101BC0000F0E050104150001C62705010539F00BAC
:101BD0000001C76F0F0E050106150001C72705019B
:101BE0000739F00B0001C86F0F0E05010815000141
:101BF000C82705010939F00B0001C96F0F0E050157
:101C00000A150001C9270001CA6B05010B39F00B49
:101C10000001CB6F0F0E05010C150001CB270DC580
:101C2000CFF00EC5CCF0300E05010F5D0501CE6F73
:101C3000CF6B0501100ECF03F3CFCFF5270ECE03E8
:101C4000F350CF27100ECE03F3CFCEF5F450CF27AD
:101C50000501D06BD16BCFAF02D0D069D169300E06
:101C60000501105D006E016AE80E0102F3CF01F07C
:101C7000030E0002F3500126E80E0002F3CF00F03D
:101C8000F4500126026A036A01AE02D002680368BA
:101C900000500501CE2701500501CF230250050158
:101CA000D02303500501D12305011151300817E25B
:101CB000300E0501115D0501116F050111510FE095
:101CC000640E0501CE27000E0501CF23000E05018D
:101CD000D023000E0501D12305011107EED7300EE8
:101CE0000501125D0A0DF3CF00F00001005005015F
:101CF000CE27000ECF23D023D123300E0501135D54
:101D0000006E000100500501CE27000ECF23D02326
:101D1000D123CFC500F0D0C501F0D1C502F000013C
:101D2000036A00C0CDF00501CE510001CE6F14C58D
:101D3000D0F0420E0501145D04E10001020EB56F02
:101D400002D0D0DAB8D100010C0EB46FBFEC13F0A2
:101D50005BEC17F000010C0EB46F0001010EB56FC3
:101D60000501BF6B0501D66B0501D36B0501D46B73
:101D70000501D56B0501BF5115E1BFEC13F005015D
:101D8000D32B0A0E0501D35D06E189700501D36BE3
:101D90000501D62B06D00A0E0501D65D02E1A2DAB6
:101DA00001D0E8D70A0E0501D65D01E184D1050115
:101DB000BF510501415D14E10501C0510501425DBE
:101DC0000FE10501C1510501435D0AE10501C25161
:101DD0000501445D05E10501C3510501455D02E0D2
:101DE00081DA69D1F00E0001C515006E05010139D7
:101DF000F00B005C01E0A6D00F0E0001C515016ECE
:101E00000F0E05010215015C01E09CD0F00E0001EF
:101E1000C615026E05010339F00B025C01E092D099
:101E20000F0E0001C615036E0F0E05010415035CAD
:101E300001E088D0F00E0001C715046E05010539D8
:101E4000F00B045C01E07ED00F0E0001C715056E9B
:101E50000F0E05010615055C75E1F00E0001C815B1
:101E6000066E05010739F00B065C6CE10F0E0001F0
:101E7000C815076E0F0E05010815075C63E1F00E2B
:101E80000001C915086E05010939F00B085C5AE11B
:101E90000F0E0001C915096E0F0E05010A15095C28
:101EA00051E10F0E05010C150A6E05010B39F00BFF
:101EB0000A240001CB5D46E105010E510001CC5D15
:101EC00041E1CDC00BF00C6A0D6A0E6ACFC50FF070
:101ED000D0C510F0D1C511F00001126A0B500F18D7
:101EE00009E10C50101806E10D50111803E10E50D5
:101EF000121800E127E1CEC013F0146A156A166AC1
:101F0000CEC517F0CFC518F0D0C519F0D1C51AF05D
:101F1000186A196A1A6A1350171809E11450181828
:101F200006E11550191803E116501A1800E10AE1EC
:101F300005010D510001CF5D05E1050114510001BE
:101F4000D05D02E0CFD9B7D00501CB51CC1102E171
:101F5000000E08D0CBC5E9FFCCC5EAFFEF50800BDF
:101F600001E0010E000918E1FF0E0501405D14E0DB
:101F7000400EE66E400EE66E050EE66E010EE66E53
:101F8000010EE66EDBEC04F0006E050EE15E005023
:101F9000F3CFCBF5F4CFCCF5F8D98DD02BEC05F001
:101FA000A09A6A6A686A6D6A696A0501806BC69A56
:101FB0009268936894680EEF00F07DD00501D66BAF
:101FC000400E0501D65D0BE20501D651EA6A400FCD
:101FD000E96E050EEA22EF680501D62BF1D7000164
:101FE000FD6B05014F0E406F05014B0E416F050162
:101FF000CB51CC1102E1000E08D0CBC5E9FFCCC516
:10200000EAFFEF50800B01E0010E000914E1400EE1
:10201000E66E400EE66E050EE66E010EE66E010EF1
:10202000E66EDBEC04F0006E050EE15E0050F3CFCF
:10203000CBF5F4CFCCF53FD00501D66B400E0501B2
:10204000D65D0BE20501D651EA6A400FE96E050E36
:10205000EA22EF680501D62BF1D70001010EFD6FD2
:1020600005014F0E406F05014B0E416F0501CB512D
:10207000CC1102E1000E08D0CBC5E9FFCCC5EAFFC8
:10208000EF50800B01E0010E000914E1400EE66EF6
:10209000400EE66E050EE66E010EE66E010EE66E71
:1020A000DBEC04F0006E050EE15E0050F3CFCBF5E3
:1020B000F4CFCCF500D0400EE66E000EE66E050EB5
:1020C000E66EE66A010EE66EDBEC04F0006E050ECD
:1020D000E15E0050F3CFC9F5F4CFCAF50501D75141
:1020E00005E10501D8690F0ED96F42D00501D7056A
:1020F0003FE10501D82B000ED9230501FF0ED88042
:10210000D8550F0ED9550AE20501D86BD96B0001DD
:10211000010EB56F0001B46BBFEC13F00501BF51A8
:1021200027E048D9020824E10501CB51CC1102E196
:10213000000E08D0CBC5E9FFCCC5EAFFEF50800BFD
:1021400001E0010E000914E1400EE66E400EE66E5D
:10215000050EE66E010EE66E010EE66EDBEC04F097
:10216000006E050EE15E0050F3CFCBF5F4CFCCF559
:1021700012000501DF51E01104E1100EDF6F270EA0
:10218000E06FDF07000EE05B6DA204D0DF51E011CD
:102190001DE116D0050180510AE0800503E0020E22
:1021A000805D02E189901200040E805D02E1898069
:1021B0001200100E805D06E10501DF51E01106E11D
:1021C00089701200200E805D01E1899012001200DA
:1021D00012001200120088EF06F012001E0EE66ECA
:1021E000010EE66EABEC04F0E552E552400EE66EF1
:1021F000000EE66E050EE66EE66A010E93DAF3CF88
:10220000C9F5F4CFCAF5120005019F0520E10501CB
:10221000A0051DE1A09ADCDF6D920501A06B000115
:10222000100EFE6F0E0EFF6FFE07000EFF5BFE51DD
:10223000FF11FAE16D84080EFE6F070EFF6FFE07B7
:10224000000EFF5BFE51FF11FAE16D94A08A1200AF
:10225000D9CFE6FFE1CFD9FFFD0EDBCF21F0FE0E97
:10226000DBCF22F0050E211801E1225036E0E868AC
:10227000211802E17F0E22182FE0030E211801E140
:10228000225028E0020E211801E1225021E0010E27
:10229000211801E122501AE0740E211801E12250A8
:1022A00013E0750E211801E122500CE0730E211885
:1022B00001E1225005E0720E21180FE122500DD0ED
:1022C00088DF0BD084DF09D083DF07D087DF05D01C
:1022D00084DF03D080DF01D07DDF010EE552E7CF40
:1022E000D9FF1200D9CFE6FFE1CFD9FFE6520001B6
:1022F000FD0501E189848992FA0E06DAFA0E04DA04
:10230000FA0E02DA89948982DF6A400EDF5C10E2FD
:10231000DF50EA6A000FE96E050EEA22EF68DF502F
:10232000EA6A400FE96E050EEA22EF68DF2AEDD770
:102330000001B56B0501460E406F410E416F490E1D
:10234000426F4C0E436F0501CB51CC1102E1000EE0
:1023500008D0CBC5E9FFCCC5EAFFEF50800B01E008
:10236000010E00090DE1400EE66E400EE66E050E10
:10237000E66E010EE66ED6D9F3CFCBF5F4CFCCF5F1
:10238000E552E552E7CFD9FF12000501D66B030EE7
:10239000D65D0EE20001FD0501E189848992280ED7
:1023A000B3D989948982640EAFD90501D62BEFD7B2
:1023B000D66B120095D90501D66B100ED65D14E2CE
:1023C000D651EA6AE50FE96E000EEA22EF50E66E9A
:1023D000300ED625EA6A400FE96E050EEA22E55274
:1023E000E750EF6ED62BE9D70001010EB56F000163
:1023F000040E8FD90501BF5109E19CD9FBE1897217
:10240000D36BD62B0A0ED65DF5E137D00501470E0A
:10241000466F0501D66B100ED65D14E25ED94708F3
:102420000CE05BD9480809E058D94D0806E055D9B9
:10243000530803E052D9500803E183D9EFCF47F5A1
:10244000D62BE9D7D5C060F5D6C061F5D7C062F507
:10245000D8C063F5D9C064F50001010EB56F000165
:10246000080E57D90501BF510AE164D9FBE1897211
:10247000D36BD62B0A0ED65DF5E134DF010C0501D6
:10248000540E486F0001C5390F0B300F0501496F1D
:102490000F0E0001C515300F05014A6F0001C63946
:1024A0000F0B300F05014B6F0F0E0001C615300FDB
:1024B00005014C6F0001C7390F0B300F05014D6F3F
:1024C0000F0E0001C715300F05014E6F0001C8390E
:1024D0000F0B300F05014F6F0F0E0001C815300FA5
:1024E0000501506F0001C9390F0B300F0501516F05
:1024F0000F0E0001C915300F0501526F0001CA39D6
:102500000F0B300F0501536F0F0E0001CA15300F6E
:102510000501546F410E556F300E566F576F586F4F
:10252000596F0501CF6BD06BD0C5D1F5CFC5D0F5B4
:10253000CBC0CFF5CE6B0001CC510501CE27000EEC
:10254000CF23D023D123D8800F0E0501CE55270EDF
:10255000D5D80AE2100ECE5F270ECF5B000ED05BFF
:10256000D15B0501562BEFD7D880E70E0501CE557C
:10257000030EC4D80AE2E80ECE5F030ECF5B000E56
:10258000D05BD15B0501572BEFD7D880630E0501D7
:10259000CE55000EB3D809E2640ECE5F000ECF5BBD
:1025A000D05BD15B0501582BF0D7D880090E05010F
:1025B000CE55000EA3D809E20A0ECE5F000ECF5B07
:1025C000D05BD15B0501592BF0D7CEC500F0300EA2
:1025D0000026000E00C05AF5CDC05BF5CEC05CF5FC
:1025E000CFC05DF5D0C05EF50001B56B020C78D8A8
:1025F000450E466FC5C047F5C6C048F5C7C049F58A
:10260000C8C04AF5C9C04BF5550E4C6FCAC04DF550
:10261000440E4E6FCCC04FF5CDC050F5430E516FF8
:10262000CEC052F5470E536FCFC054F5460E556FCE
:10263000D0C056F5D1C057F5500E586FD2C059F5DD
:102640004D0E5A6FD5C05BF5D6C05CF5D7C05DF5B1
:10265000D8C05EF5540E5F6FD9C060F5DAC061F581
:10266000DBC062F5DCC063F5570E646FDDC065F555
:10267000DEC066F5DFC067F5E0C068F5480E696F3B
:10268000E1C06AF5E2C06BF5E3C06CF5E4C06DF53E
:10269000460E6E6FE5C06FF5E6C070F5E7C071F5E8
:1026A000E8C072F5530E736FE9C074F5EAC075F5B2
:1026B000EBC076F5ECC077F54E0E786FEDC079F58E
:1026C000EEC07AF5EFC07BF5F0C07CF57F0E7D6F34
:1026D0007E6F7F6F1200FF00120033D8EF501200A0
:1026E0000501490E406FBFC541F5C0C542F5C1C5E2
:1026F00043F5C2C544F5C3C545F51200CF55000EDC
:10270000D055000ED1551200E66EEAEC18F0E552F5
:102710001200B46F0501D66BD36BD46BD56B05017A
:10272000BF6B1200E66EDBEC04F0006E050EE15E9E
:1027300000501200BFEC13F00501D32B0A0ED35D3D
:102740001200D651EA6AC50FE96E000EEA221200A5
:102750000001B56B8A868A94010EE66EEAEC18F0E9
:10276000E5528A84010EE66EEAEC18F0E55272EC4E
:1027700018F0700EE66E260EBDDB8FEF18F0BF0E60
:10278000E66E050EE66E18D8E552E55201080AE13C
:102790000001B50502E15DDB0BD0020EB55D08E17D
:1027A00070DB06D00501BF6BC06BC16BC26BC36B26
:1027B00072EC18F08FEF18F0B2DBE652F3EC17F082
:1027C000260EE66E8DD8E552E552E552DF6EDF0447
:1027D00006E1F3EC17F081D9E552E552DF6E19DB23
:1027E000DF50E552A1D39BDBE652DF6A050EDF5CCA
:1027F00013E2DF5089DBEFCF00F0DF50E76EFB0E16
:10280000DBCFE9FFFC0E88EC18F0EF50005C02E033
:10281000000E03D0DF2AEAD7010EE55285D37FDB15
:1028200011EC18F01CEC18F0FD0EDBCFE6FFB4EC59
:1028300007F0E5528A8678D372DBF3DB80091CEC63
:1028400018F001EC19F00001616F8A86E8506CD332
:1028500066DBFD0EDBCFE6FF36EC18F0E7109DEFF0
:1028600018F05DDBFD0EDB1C006EE66E36EC18F03A
:10287000E7CF00F000149DEF18F051DBE652140E84
:1028800096DBDF6E030EDF1405E1030EE66E140E19
:10289000A4EC18F0E55248D3030EE66E140EAAEF2E
:1028A00018F00F0EE66E010E25DB010E80DB100B1B
:1028B00016E0010EE66EECEC07F0E5520501C52BC3
:1028C000000EC623C723C823E868C519EEE1E868EF
:1028D000C619EBE1C751E9E1C851E7E1000C010C71
:1028E0001EDB030EE126070EE66E0D0E03DBB0ECD9
:1028F00018F0DBCFEAFFFE0EDBCFEFFF99EC18F00C
:102900006BDB010EE66E68DBC2EC18F006E183DBE0
:10291000100EEE1801E1ED5001E0DF6ADF50006EAD
:10292000030EE15C02E2E16AE552E16E0050FCD286
:10293000F6DA070EE126DF6A010EDB6A020EDB6AB9
:10294000FE0EDB500C0A07E0020A0DE1DE52120E09
:10295000DD6E100E04D0DE52770EDD6E300EF36E9B
:10296000020EF3CFDBFF010EDB508009E66E020E94
:10297000C1DA800EE66E040E48DBE66A010EBADAB2
:10298000050EDB6A060EDB6A33DBFB0E75DB13E23A
:102990002FDBFC0EDB500024E96EFD0EDB50012026
:1029A000EA6EEF50E66E090EA5DA050EDB2A060E7A
:1029B000EBE3DB2AE9D7E6EC18F0010E9BDAFE0E1A
:1029C000DB500C0804E1800EE66E0D0EBDDBD00E70
:1029D000F36E050EF3CFDBFF070EF36E060EF3CF9B
:1029E000DBFF040EE4DA74DB050EDB06060E01E203
:1029F000DB064ADB07E0040EDB50010B03E1020EAD
:102A00004BDBEFE0800EE66E0D0EA4DB3DDB5BE002
:102A1000060ECDDA1B0B56E1010EDF6E3DDB010B1E
:102A200002E0020EDF6EFE0EDB500C084CE10A0ED7
:102A3000BEDA4EDB0C0EBBDA070BE76E030EE7CFF8
:102A4000DBFFDB500AE0030EDBCFE6FF040EDB0406
:102A5000080DF350E552E72404D0040EDB50080DB6
:102A6000F350E66EF70EDBCFE9FFF80EDBCFEAFF9F
:102A7000E552E750EE6EED6A040EDB5002E1010E06
:102A80002CDB040EDB50100802E2100E26DB050ED4
:102A9000DB6A060EDB6AACDA040EEEDA14E2090E2B
:102AA00086DAE66EA5DAF90EDB500024E96EFA0E3E
:102AB000DB500120EA6E80DB050EDB2A060EEBE31D
:102AC000DB2AE9D7DF6ADF50006E070EE15C02E225
:102AD000E16AE552E16E005027D221DA050EE126C7
:102AE000020EDB6AE66A0D0E05DAFD0EDBCFE9FFAA
:102AF000FE0EDBCFEAFF930EEF6E010E05DA200E1D
:102B0000EF6ED950030FFBD96EDA020EE66E6BDA68
:102B100039DB19E1010EDB6A040EC5DA0CE23CDB9D
:102B2000020EDBCFE7FFEF50E71A020EE7CFDBFF25
:102B3000010EDB2AF1D730DBEF50F36E020EDB50D3
:102B4000F35C01E0DF6ADF50006E050EE15C02E23B
:102B5000E16AE552E16E0050E7D1E1D9020EE126CB
:102B6000040EE66E050E51DADF6AFC0EDB50DF5C08
:102B700008E2DF50C9D9EF50E66E090EBBD9DF2A53
:102B8000F4D7030EE66E010EB5D9DF68050E0FDA35
:102B9000E76E010EE7CFDBFFDF06DF5004E0010E3A
:102BA000DB50040BF3E0220E02DAE66E83DA04DB7C
:102BB000210EFDD9E66E010EE76E7CDAE750E926BC
:102BC000000EEA22F9DA020EE15C02E2E16AE55265
:102BD000E16EAAD1A4D90E0EE126930EF36E050E76
:102BE000F3CFDBFF700EF36E060EF3CFDBFF010EAB
:102BF000DB6A050E58DA0FE2CFDAEF50E66ED950F5
:102C0000050F006EDACF01F0010EDB50020FC7D9BD
:102C1000010EDB2AEED7D9500C0F71D9070EE66EE4
:102C2000BFDAEDD9D950030F6AD9BADA090EE66EC8
:102C3000B7DAA8DA11E1D950030FE96EDACFEAFF6B
:102C4000180EEE1809E1ED5007E1050EDB50E76EB6
:102C5000020EE7CFDBFF02D0020EDB6ADB50006E14
:102C60000E0EE15C02E2E16AE552E16E00505CD1D9
:102C700056D9100EE126FE0EDB502ADAFD0EDB508F
:102C8000E76E050EE7CFDBFF030EDB6A060EDDD92C
:102C90000BE2030EDB50E76EFB0EDBCFE9FFFC0E11
:102CA00062D9020F81DAF2D7030EDB6A040ECDD9A6
:102CB0000BE2030EDB50E76EF90EDBCFE9FFFA0EF5
:102CC00052D9080F71DAF2D734DA1EDA0C0EE66E3A
:102CD0001BDA0E0E20D904E1080E69D9080B01E1B8
:102CE000DF6ADF50006E100EE15C02E2E16AE5523D
:102CF000E16E005019D113D9030EE12631DADBCF92
:102D0000EAFF300EEF6E010EE76E2ADA01DAFE0EF0
:102D1000DBCFEFFF020EE76EFC0EDBCF00F0FD0E07
:102D2000DBCF01F0E7500026000E012200C0E6FFD5
:102D300001C0E6FF020EE66E4FD90FDF026E050EF0
:102D4000E15E0250F6D948D9040EE66E45D91ADA8A
:102D500006E161D9900EEE1801E1ED5001E0DF6A65
:102D6000DF50006E030EE15C02E2E16AE552E16EC3
:102D70000050DAD0D4D8160EE126A00EAED9FE0E41
:102D8000DB50E76E050EE7CFDBFFD950060FB7D853
:102D9000020E16DA040EE66EB7D9F4D90BE13BD970
:102DA000040EEE1807E1ED5005E1040EDB500F0BA9
:102DB0000A0801E0DF6ADF0422E1030EDB6A100E7D
:102DC00044D907E2030EDB50E76ECAD9CCD8ECD960
:102DD000F6D7D950140F93D8100EF2D9120EE66E12
:102DE00093D9D0D90BE117D9040EEE1807E1ED50B5
:102DF00005E1040EDB500F0B0A0801E0DF6ADF502B
:102E0000006E160EE15C02E2E16AE552E16E0050EE
:102E10008BD085D8060EE126500EF36E020EF3CF4E
:102E2000DBFF030EDB6A70D9020EE66EC1D9E7D86C
:102E3000D9CFE6FFDACFE6FFBBD9040EE66EB8D9EC
:102E40000C0E98D9060EE15C02E2E16AE552E16EF1
:102E50006BD094D8050E905D02E2ADD8FBD768D850
:102E60000EE12FD9FED891D9E66EFBD8E50EE66EBD
:102E7000000EE66E020E0001B425E66EF2D809EFF0
:102E800017F07CD8050E905D02E295D8FBD750D89C
:102E900010E1B45105E015D96DDFE552E552E55278
:102EA00074D9DAD8E50EE66E000EE66E020EB42591
:102EB000D3D809EF17F033D8E652DF6A100EDF5C83
:102EC00017E2DF50EA6AC50FE96E000EEA22EF6AE8
:102ED000DF50EA6AD50FE96E000EEA22EF6ADF5092
:102EE000EA6AE50FE96E000EEA22EF6ADF2AE6D70A
:102EF000E5521AD0E66E93DCE552E5521200E66E1A
:102F0000000EDA20E66E1200E76EFD0EDBCFE9FF61
:102F1000FE0E88EF18F02ED9DF6EDF041200D9CF35
:102F2000E6FFE1CFD9FF1200E552E7CFD9FF12004B
:102F3000BA0EE66E050EE66E4DDE17D9BA0EE66ED7
:102F4000050EE66EAE0EE66E050EE66EB4C0E6FF4A
:102F5000600EE66E8DDE006E060EE15E0050000132
:102F6000916F00041200D4D8EF50E66ED950040FD0
:102F7000006EDACF01F0030EDB501200800EE66E19
:102F8000000EE66E260EE66EABDCE552EED8800E45
:102F9000E66E000EE66EA1DDE8D8906B12000F0120
:102FA0000024E96E000EDA20EA6EDCEF18F0E66E1F
:102FB00043DCE55212009051EA6A800FE96E000E80
:102FC000EA22EF50E66E9051EA6ABA0FE96E050EFA
:102FD000EA22F2D8902B1200FC0EDBCFE6FFFD0EAA
:102FE000DBCFE6FF1200FD0EDBCFE6FFE6EF18F0C9
:102FF000050EDBCF00F0060EDBCF01F01200ADDDD9
:10300000006E050EE15E00501200A4D8800EE66E40
:103010000A0EA4EF18F0D950010FE96EDACFEAFFDB
:1030200012008A96010EE66E36EC19F0E552FE0E9D
:10303000DB50E8247E0B1200E76EFE0EE7CFDBFFCD
:10304000C5D8B4EC07F0E5521200F36E030EDBCFE7
:10305000F4FFF350F45C1200E66E8CDEE552B5EF3F
:1030600018F049DEE552E552E5521200AFD81CECEB
:1030700014F0E552E5521200DB50026E036AE8508C
:10308000005C035001581200D950050FE96EDACFE9
:10309000EAFFEE50ED101200DBCFE6FF040EDB502E
:1030A000E552E7141200F36E010EDBCFF4FFF3508C
:1030B000F45C1200FA0EDBCFE9FFFB0EDBCFEAFF78
:1030C0001200C50EE66E000EE66EB4C0E6FF1200FA
:1030D000E76E040EE7CFDBFF1200F36E040EF3CFB2
:1030E000DBFF120051EC14F08D0EE66E2A0E02DFAB
:1030F0003E0EE66E2B0EFEDE1E0EE66E2D0EFADE88
:10310000E66A2C0E7AEF17F0D950040F7FEF17F014
:10311000DBCFEAFFE750E926000EEA221200400E5C
:10312000E66E150EE7DE3D0EE66E110EE3DE3DEFB8
:1031300014F0D950010F7FEF17F0E66E47D80FEC6F
:1031400014F0E552E552F0D6E66E28EC14F0E552A4
:10315000E5521200E66E31EC14F0E552E552120031
:10316000FC0EDBCFE9FFFD0E1200E552E552000137
:10317000916F1200E66E98EC14F0006E080EE15E9E
:10318000005012000C0E8BEF17F0D50EE66E000EFD
:10319000E66E0001B4291200010EDB5084EF17F037
:1031A000D950050F7FEF17F0FADE030EDB2A12006D
:1031B000D950020F7FEF17F0E552E750EF6E120083
:1031C000E66EA2DF1CDFB5DF84EF18F0FE0EDBCF6A
:0431D000E6FF120004
:0C31D400FF0EE350276EEF0E01D0F30E4B
:1031E000E76EE72EF1EF18F00C0E266EE76AE72E79
:1031F000F7EF18F0262EF6EF18F0272EEFEF18F065
:023200001200BA
:0E320200D9CFE6FFDACFE6FFE1CFD9FFE2CF6A
:10321000DAFFE652C950DF6E9E96C96A9EA6FED7B7
:10322000C950E552E552E5CFDAFFE7CFD9FF1200EA
:10323000000EF36E00EE00F0080E01D81200EA60F6
:1032400002D0EE6AFCD7F350E9601200EE6AFCD7B8
:1032500013EE00F023EE00F0F86A259CECEC06F08B
:0C32600003EC00F06BEC08F0FBD7120050
:04326C00FF0EE3501E
:10327000E84E1200000000D000D000D0E82EFAD7AF
:0232800012003A
:0E328200FFFFFFFFFFFFFFFFFFFFFFFF00004A
:0D3290000000000000000000000000000031
:03329D000000002E
:1032A000000100000000000000000000000000001D
:0532B000000000000019
:020000040030CA
:0100000024DB
:010001000EF0
:010002003FBE
:010003001EDE
:010005008179
:010006008178
:010008000FE8
:01000900C036
:01000A000FE6
:01000B00E014
:01000C000FE4
:01000D0040B2
:00000001FF
