:020000040000FA
:060000005FEF07F01200A3
:0400080004EF08F009
:080018000CEF08F018EF00F0F6
:0E00200001002E000000F002000002000000AF
:02002E000000D0
:10003000F26A11EE00F021EE00F0F86AFC6A88EC3A
:1000400007F0040057EC03F08EEC07F0A0EC07F08B
:0800500036EC00F0F6D71200B7
:080058000001E16BE569E669B6
:10006000E769E869E46B010EE96F1200060E010111
:10007000675D01E0AAD16450020B01E012000001AB
:10008000E1511EE102010CBFA0D10001400EFF6F43
:100090000001600EFD6F000EFE6FD0EC06F0000157
:1000A000010EE16FEA6B400EEA5D01E38ED1EA5189
:1000B000EA6AAC0FE96E020EEA22EF6AEA2BF3D786
:1000C00000016051080A01E17DD1040A01E13DD13E
:1000D000050A01E138D10E0A01E1F8D0010A01E177
:1000E000EED0030A01E18CD0010A4CE0070A40E09F
:1000F000010A01E068D1020110BF67D10201020EBE
:10010000AC6F3A0EAD6F010EAE6FAF6FB06B100EED
:10011000B16FB26BB36BB46B300EB56FB66BB76BC0
:10012000030EB86FB96BBA6B300EBB6FBC6B0E0EA3
:10013000BD6FBE6BBF6BC06B040EC16FC26BC36B78
:10014000200EC46FC56B080EC66FC76BC86BC96B3A
:10015000020ECA6FCB6BCC6BF00ECD6FCE6BCF6B3C
:10016000010ED06FD16BD26BD369A50EE56FE8D0CD
:100170000001010EE96F0001615101E020D1000191
:10018000E96B1DD1400E0001E26FE36B000EE25DF2
:10019000010EE35917E2E4EC05F0E2C0F6FFE3C01C
:1001A000F7FF060ED890F636F736E804FBE1F86A5A
:1001B000940EA66E4EDA57EC03F00001E22B000E0F
:1001C000E323E4D7EA6BEAC0A9FFA868040EA66E91
:1001D00057EC03F03EDA0001EA51EA2B006E016AA7
:1001E000026AFF0E005C000E0158000E0258EBE39D
:1001F000200EF86EF76AF66A940EA66E2ADADFD041
:10020000300E635D06E10001E95101E0D8D0BCD9B0
:10021000D6D0F00E635D02E1DDD9D1D0E8680001EF
:10022000E51911E1E868E6190EE1E868E7190BE164
:10023000E868E81908E161C0E5F062C0E6F063C073
:10024000E7F064C0E8F0E50EE96E000EEA6EEE50ED
:100250000001611901E0B3D0EE50621901E0AFD0A6
:10026000EE50631901E0ABD0EE50641901E0A7D065
:1002700001E0A5D00001EA6B000165510001EA5DD3
:1002800001E39DD0DED9660FE96E000EEA22EF5041
:10029000E66EE451EA6AA10FE96E000EEA22E55229
:1002A000E750EF6EE42BE52B000EE623E723E8236F
:1002B000100EE45D01E1F9D80001EA2BDDD7F5D895
:1002C0000001E569E669E769E8697AD00201070E8D
:1002D000AC6F61C0ADF262C0AEF263C0AFF264C099
:1002E000B0F265C0B1F261C0EBF062C0ECF00001A9
:1002F000EA6B000165510001EA5D1FE2F00E0001AA
:10030000635D0AE161510001EA25A96EA66AA68033
:10031000A5D9A8CFEFFF0FD00001EBC0F6FFECC0CE
:10032000F7FFEB2B000EEC230800F550E66E96D994
:10033000E552E750EF6EEA2BDCD7020110BF45D043
:100340000001400E34D042D83AD002010C0EAC6FFE
:10035000020EAD6F010EAE6F160EF66E100EF76E3A
:100360000900F5CFAFF20A00F5CFB0F2060EB16F7B
:10037000100EB26FB36BB46B0D0EB56F600EB66F2F
:10038000400EB76FB86BB96BBA6BBB69BC69BD691E
:10039000BE69BF6BC069C169C26BC369C469C56905
:1003A000C669C769C869020110BF0FD00001FB6FA1
:1003B0000001AC0EF96F020EFA6FAAEC06F0000114
:1003C000E16B12006CD80001E16B12000001EE6BD2
:1003D000100EEF6F0001ED6B400E0001ED5D18E2B5
:1003E0000001EEC0F6FFEFC0F7FFEE2B000EEF238B
:1003F0000800F550E66E0001ED51EA6AA10FE96EC2
:10040000000EEA22E552E750EF6E0001ED2BE4D733
:1004100000010D0EA76F0001600EA86FF86A100EA4
:10042000F76EF66A940EA66E0001B50EF56FF2D85F
:1004300000013F0EEE6F100EEF6F00013F0EED6FEB
:10044000EEC000F0EFC001F0026A036A00C0F6FFE0
:1004500001C0F7FF02C0F8FF0001ED51EA6AA10FE9
:10046000E96E000EEA22EF50F56E0C000001ED512E
:100470000F0B08E1E4EC05F0A40EA66E0001B50E2A
:10048000F56FC8D80001EE07000EEF5B0A0000010F
:10049000ED5101E103D00001ED07D2D71200D0ECFD
:1004A00005F0FF00000000001200E4C004F0056A3F
:1004B000066A076A04500001E55D006E0550000100
:1004C000E659016E06500001E759026E075000011F
:1004D000E859036E00C0F6FF01C0F7FF02C0F8FF45
:1004E0000001F16B0F0EF6140001F26FF00EF6161C
:1004F0000001F06B100E0001F05D1FE20001F251EF
:1005000015E10001E4510FE00001F151EA6AA10F89
:10051000E96E000EEA22EF50F56E0D000001F12B9E
:100520000001E40702D0F5680D0004D0F5680D0065
:100530000001F2070001F02BDDD70A00A40EA66E21
:100540000001B50EF56F66D80001F06B0001E451B3
:100550000001F05D18E20001F1510001F025EA6AA6
:10056000A10FE96E000EEA22EF50E66E0001F05195
:10057000EA6AA10FE96E000EEA22E552E750EF6E3B
:100580000001F02BE3D7120061C0F6FF62C0F7FF55
:1005900063C0F8FF0001F36B000165510001F35DDA
:1005A00018E23A0E0001D88065550001F325EA6A89
:1005B000660FE96E000EEA22EF50F56E0C00C40ED5
:1005C000A66E0001B50EF56F25D809000001F32BCA
:1005D000E3D712000001F46B000165510001F45DE6
:1005E00018E2000161510001F425A96E3A0E0001E4
:1005F000D88065550001F425EA6A660FE96E000EA1
:10060000EA22EF50A86E040EA66E23D80001F42B48
:10061000E3D71200F29EA0EC07F0B50E0001F55DE5
:1006200005E0030ED36E0300FED7FF00550EA76E44
:10063000AA0EA76EA682A6B2FED7A6941200090043
:1006400012003A0E0001D88065550001EA25EA6AD9
:1006500012000001B50EF56F0AEF03F0F2DFB20FE2
:08066000E96E020EEA2212000D
:0806680064B69ADA01016E6B21
:1006700050EF03F001016E0501E192DA646A150E94
:10068000616E606A648691D80101010E676F6E6BBE
:1006900012006492646A0101676B010E6E6F1200B2
:1006A00001016E0501E1120064A6E4DF1200F8DF2B
:1006B0000101675101E1120062B46ED864B2120008
:1006C00062B073D862B859D8030E0101675D01E2C8
:1006D0001200506B040E505D4FE262A64DD063CF06
:1006E0006BF17C0E63143EE163B204D0000E6F6FB9
:1006F000020E03D0040E6F6F020E706F62966FC110
:10070000E9FFEA6EEF503C0BE842E8420D0831E1A8
:10071000716B7151006E016A080E005C000E015889
:100720001FE26FC1E9FF70C1EAFF020EE926000E69
:10073000EA22EECFF3FFEDCFF4FFEE2AEF22F3CF64
:10074000E9FFF4CFEAFFEF50E66E7151EA6A5A0F03
:10075000E96E010EEA22E552E750EF6E712BD9D710
:1007600042D807D0040E635C03E1629658D801D0EA
:1007700062960101502BAED7120060CF72F1040EC9
:10078000606E62986482A194A084A7EC07F0A094A4
:100790000101725160121200A1EC07F064926094A2
:1007A00062A402D06294FCD712000101030E676FAD
:1007B0000F015B6B626A7B0E606E5C6B32DA160E49
:1007C000536F648C62A603D06296FED9FBD7649CFB
:1007D00064980101040E636F0CDA686B696B0201A7
:1007E000EF6BB2EF07F00201086B0101596B0201D8
:1007F00000AF03D0006B0101626B020104AF04D0B3
:10080000046B0101010E626F0101516B526B576B5A
:10081000586B6498A2D8BAEC07F065EF04F0040EA8
:100820000101675D0CE15CC15CFF0F015C510008D8
:1008300003E20101050E02D00101030E676F5105AD
:1008400012E112D8020E0101595D05E10201040E08
:10085000086F088F1200020108BD02D0480E01D0B7
:10086000080E086F088F12000101080E736F575DA4
:10087000000E58590AE257C173F1595102E1010EB5
:1008800003D0590502E1020E596F73C109F2735189
:10089000006E016A0050575F0150585B240E556F7F
:1008A000020E566F68A306D073510EE0CAD98ED9D6
:1008B000C0D9FAD7735108E053C1E9FF54C1EAFF28
:1008C000EF5084D9B6D9F6D71200010152510EE18A
:1008D0000201040E086F088F0101636F620504E1D5
:1008E0009BD90101626B1200F9EF05F05AAF1CD0E1
:1008F000010E516F5751605D5851615904E260C15A
:1009000057F161C158F1B0DF0101480E636F84D91E
:100910000101756B21D90201240E0A6F020E0B6FC3
:10092000480E086F088F1200020E516F040E636F9D
:100930006051611102E1480E636F620504E16CD9F8
:100940000101626B01D055D96051611105E10201CD
:10095000096B480E086F088F120001015A51600B95
:10096000E842E842E842E842E842000901E01200B9
:100970005B51070A41E00B0A3FE0070A32E0010A37
:1009800023E00B0A1FE0020A1DE0030A19E0080A2F
:1009900010E0010A0CE00F0A08E0030A01E012006F
:1009A000010E526F040E676F1200FDEF04F033EF7B
:1009B00005F0010E526F690E536F010E546F0DD08A
:1009C00054EF05F080EF05F0010E526F5E51536F4A
:1009D000546B6A0E5327010E54236893010E576F10
:1009E0001200010E526F5E51EA6A6A0FE96E010E43
:1009F000EA225CC1EFFF12001200800E01015A5D75
:100A000031E15D51030A18E0010A0BE0030A29E114
:100A1000010E526F020E536F0E0E546F120E576F6F
:100A200020D0010E5C5D1DE2010E526F140E536F5B
:100A30000E0E546F290E13D0010E526F5C51F66EDC
:100A4000F76AD890F636F736B80EF6260E0EF7226D
:100A50000900F5CF53F10A00F5CF54F1F2D8576FE2
:100A6000586B688312000101010E526F0F01D9D833
:100A70000101746B010E745D09E27451EA6A6A0F38
:100A8000E96E010EEA22EF6A742BF4D75CC169F1BA
:100A90005CC1EFF2B2EC07F001015C5102E1050E1E
:100AA00001D0060E676F12000201246B256B010155
:100AB0005A511F0B020A0EE0030A09E0010A15E170
:100AC000010E526F68A111D0020124830ED0010ED5
:100AD000526F0BD080D801E0010E92D877D8EF503A
:100AE000040B03E00201010E246F0101520507E12E
:100AF000240E536F020E546F6893020E576F12004C
:100B000001015C050CE15A511F0B000908E1010EBF
:100B1000526F030E5B5D02E1688101D068915C5108
:100B20001AE15A511F0B020816E15E510F0B000922
:100B300012E051D801E0010E63D8030E5B5D03E1C2
:100B4000040E28EF06F05EAF04D0400E3FD8EF6EE3
:100B50001200080E7DD812000101080E646F1C0EF1
:100B6000656F020E666F755106E1140E656F020E19
:100B7000666F766B02D0040E766F020E776F76C1C9
:100B8000E9FFEA6E63C1EEFF64C1EEFF65C1EEFFEF
:100B900066C1EEFF76C1E9FF77C1EAFFEF8E120072
:100BA0006492646A01017869796903D80101676B0D
:100BB000120001017851791106E006D80101780789
:100BC000000E795BF6D712000400120055C1E9FF50
:100BD00056C1EAFF1200010E526F5E510F0B080D55
:100BE000F350016A000F006E020E01225E51800B6D
:100BF00012000101756BB0DF0101010E626F12007E
:100C0000040DF3500024556F000E0120566F040EA2
:100C10005527000E562312000101010E756FACEF2F
:100C200005F0546B556B566B576B586B596B5A6B81
:100C30001200EF6E552B000E5623532B54237307CF
:100C4000120053C1F6FF54C1F7FF0800F55012001F
:0A0C5000BDDFEF6EBBDFEF8E120078
:060C5A0001015A511F0BBD
:100C6000010801E012005E5101E01200060E5B5D1A
:100C700021E15D51230A1CE0010A0AE0030A18E1A0
:100C8000BCD80101260E536F0E0E546F090E0DD005
:100C9000B4D80101690505E101019B0E536F0E0EE9
:100CA000546F0101690504E11D0E0101576F586B76
:100CB0000101688301015A51600BE842E842E842B1
:100CC000E842E842010801E012005B510B0A25E00E
:100CD000080A17E0090A11E0080A09E00B0A05E012
:100CE000080A01E0120091EF06F092EF06F085D8B5
:100CF0000101F60E536F000E09D07FD85DC1F6F0EA
:100D000012007BD80101F70E536F000E546F0101E2
:100D100068930101010E576F12006FD85CC1F7F0A4
:100D20001200120012000001F86B0F011E0E546F2A
:100D30000201400E0D6F2C0E0E6F020E0F6F080E8B
:100D40000C6F0C8F02016C0E126F020E136F400EAF
:100D5000106F12000001FB51400802E2400EFB6FD1
:100D6000FC6BFB51FC5D13E2FC51EA6AF925E96E6C
:100D7000FA51EA22EF50E66EFC51EA6A6C0FE96E16
:100D8000020EEA22E552E750EF6EFC2BEAD7FBC0D9
:100D900011F2400E02011017107D1087108F120003
:100DA0000001F86B02010CBF25D00D510001D88065
:100DB000FF5502E20DC2FFF0F86BFF51F85D13E240
:100DC000F851EA6A2C0FE96E020EEA22EF50E66E45
:100DD000F851EA6AFD25E96EFE51EA22E552E75034
:100DE000EF6EF82BEAD70201400E0D6F0C170C7D49
:100DF0000C870C8F0001F85112000101020E526F96
:020E00001200DE
:0E0E02001201000200000008D8043C000101AB
:100E100001020001090229000101008032090400D9
:100E2000000203000000092111010001221D00073A
:100E30000581034000010705010340000104030987
:100E40000434034D006900630072006F00630068A2
:100E50000069007000200054006500630068006EA7
:100E6000006F006C006F0067007900200049006E81
:100E70000063002E0026034800490044002000556E
:100E80000053004200200042006F006F0074006CAD
:100E9000006F0061006400650072000600FF090138
:100EA000A10119012940150026FF00750895408110
:0E0EB00000190129409100C03D0E410E750E43
:020EBE0080A60C
:100EC00002D003D002D018EC00F0060EF66E100E21
:100ED000F76E0900F5CF00F00800F5CF01F00D0E18
:100EE000001802E1600E011810E1F66A100EF76EAC
:100EF0000900F5CF00F00800F5CF01F00001001C5B
:100F000001E1011C02E000EF08F018EC00F0120013
:100F10002CEC00F08B90949034EF03F00201F0077A
:100F2000000EF15BF051F1110AE1F06B4E0EF16F22
:100F3000060E0101675D02E28B8012008B701200C9
:100F400012000101786B030E796FD9EF05F08B90D9
:100F50000300A150040B05E1D050080B02E103008F
:100F6000F8D712000201EF0504E193EC06F02CEC37
:080F700000F012002DEF06F065
:080F7800000EF36E00EE00F024
:100F8000030E01D81200EA6002D0EE6AFCD7F350DB
:080F9000E9601200EE6AFCD7D3
:021006000D607B
:020000040030CA
:0100000000FF
:0100010032CC
:0100020003FA
:010003001EDE
:0100050000FA
:010006008178
:0100080003F4
:01000900C036
:01000A0003F2
:01000B00E014
:01000C0003F0
:01000D0040B2
:00000001FF
