:020000040000FA
:06000000FDEF06F0120006
:0400080004EF08F009
:080018000CEF08F018EF00F0F6
:0E00200001002E000000DF00000002000000C2
:02002E000000D0
:10003000F26A13EE00F023EE00F0F86AFC6A2DEC91
:1000400007F0040057EC03F037EC07F049EC07F039
:0800500036EC00F0F6D71200B7
:080058000001CA6BCE69CF69FB
:10006000D069D169CD6B010ED26F1200060E00016E
:10007000B75D01E0AAD16D50020B01E01200000152
:10008000CA511EE104010CBFA0D10301400EFB6F59
:100090000301B10EF96F030EFA6FCCEC06F000010C
:1000A000010ECA6FD36B400ED35D01E38ED1D351E5
:1000B000EA6A700FE96E030EEA22EF6AD32BF3D7D8
:1000C0000301B151080A01E17DD1040A01E13DD1EA
:1000D000050A01E138D10E0A01E1F8D0010A01E177
:1000E000EED0030A01E18CD0010A4CE0070A40E09F
:1000F000010A01E068D1040110BF67D10301020EBB
:10010000706F3A0E716F010E726F736F746B100E19
:10011000756F766B776B786B700E796F7A6B7B6B24
:10012000030E7C6F7D6B7E6B300E7F6F806B0E0ECF
:10013000816F826B836B846B040E856F866B876B1C
:10014000200E886F896B080E8A6F8B6B8C6B8D6BA2
:10015000020E8E6F8F6B906BF00E916F926B936BA4
:10016000010E946F956B966B9769A50EA96FE8D0F9
:100170000001010ED26F0301B25101E020D1000154
:10018000D26B1DD1400E0001CB6FCC6B000ECB5D4E
:10019000020ECC5917E2E1EC05F0CBC0F6FFCCC063
:1001A000F7FF060ED890F636F736E804FBE1F86A5A
:1001B000940EA66E4EDA57EC03F00001CB2B000E26
:1001C000CC23E4D7D36BD3C0A9FFA868040EA66ED6
:1001D00057EC03F03EDA0001D351D32B006E016AD5
:1001E000026AFF0E005C000E0158000E0258EBE39D
:1001F000200EF86EF76AF66A940EA66E2ADADFD041
:10020000300EB45D06E10001D25101E0D8D0BCD976
:10021000D6D0F00EB45D02E1DDD9D1D0E86800019E
:10022000CE1911E1E868CF190EE1E868D0190BE1A9
:10023000E868D11908E1B2C3CEF0B3C3CFF0B4C3BC
:10024000D0F0B5C3D1F0CE0EE96E000EEA6EEE50DE
:100250000301B21901E0B3D0EE50B31901E0AFD001
:10026000EE50B41901E0ABD0EE50B51901E0A7D0C3
:1002700001E0A5D00001D36B0301B6510001D35DAD
:1002800001E39DD0DED9B70FE96E030EEA22EF50ED
:10029000E66ECD51EA6A600FE96E000EEA22E55281
:1002A000E750EF6ECD2BCE2B000ECF23D023D123E2
:1002B000200ECD5D01E1F9D80001D32BDDD7F5D8B3
:1002C0000001CE69CF69D069D1697AD00301070EE8
:1002D000706FB2C371F3B3C372F3B4C373F3B5C336
:1002E00074F3B6C375F3B2C3D4F0B3C3D5F0000151
:1002F000D36B0301B6510001D35D1FE2F00E030181
:10030000B45D0AE1B2510001D325A96EA66AA680A8
:10031000A5D9A8CFEFFF0FD00001D4C0F6FFD5C0FC
:10032000F7FFD42B000ED5230800F550E66E96D9C2
:10033000E552E750EF6ED32BDCD7040110BF45D058
:100340000301400E34D042D83AD003010C0E706F36
:10035000020E716F010E726F160EF66E100EF76EB2
:100360000900F5CF73F30A00F5CF74F3060E756F2D
:10037000100E766F776B786B0D0E796F600E7A6F5B
:10038000400E7B6F7C6B7D6B7E6B7F6980698169C2
:100390008269836B84698569866B876988698969E5
:1003A0008A698B698C69040110BF0FD00301F76F54
:1003B0000301700EF56F030EF66FA6EC06F0000158
:1003C000CA6B12006CD80001CA6B12000001D76B17
:1003D000100ED86F0001D66B400E0001D65D18E2FA
:1003E0000001D7C0F6FFD8C0F7FFD72B000ED823E7
:1003F0000800F550E66E0001D651EA6A600FE96E1A
:10040000000EEA22E552E750EF6E0001D62BE4D74A
:1004100000010D0E666F0001600E676FF86A100E26
:10042000F76EF66A940EA66E0001B50EDE6FF2D876
:1004300000013F0ED76F100ED86F00013F0ED66F30
:10044000D7C000F0D8C001F0026A036A00C0F6FF0E
:1004500001C0F7FF02C0F8FF0001D651EA6A600F41
:10046000E96E000EEA22EF50F56E0C000001D65145
:100470001F0B08E1E1EC05F0A40EA66E0001B50E1D
:10048000DE6FC8D80001D707000ED85B0A00000154
:10049000D65101E103D00001D607D2D71200CDEC2E
:1004A00005F0FF00000000001200CDC004F0056A56
:1004B000066A076A04500001CE5D006E0550000117
:1004C000CF59016E06500001D059026E075000014D
:1004D000D159036E00C0F6FF01C0F7FF02C0F8FF5C
:1004E0000001DA6B1F0EF6140001DB6FE00EF6164A
:1004F0000001D96B200E0001D95D1FE20001DB5124
:1005000015E10001CD510FE00001DA51EA6A600FF8
:10051000E96E000EEA22EF50F56E0D000001DA2BB5
:100520000001CD0702D0F5680D0004D0F5680D007C
:100530000001DB070001D92BDDD70A00A40EA66E4F
:100540000001B50EDE6F66D80001D96B0001CD51F8
:100550000001D95D18E20001DA510001D925EA6AEB
:10056000600FE96E000EEA22EF50E66E0001D951ED
:10057000EA6A600FE96E000EEA22E552E750EF6E7C
:100580000001D92BE3D71200B2C3F6FFB3C3F7FFC4
:10059000B4C3F8FF0001DC6B0301B6510001DC5D60
:1005A00018E23A0E0301D880B6550001DC25EA6A4C
:1005B000B70FE96E030EEA22EF50F56E0C00C40E81
:1005C000A66E0001B50EDE6F25D809000001DC2BF8
:1005D000E3D712000001DD6B0301B6510001DD5DC0
:1005E00018E20301B2510001DD25A96E3A0E0301A4
:1005F000D880B6550001DD25EA6AB70FE96E030E13
:10060000EA22EF50A86E040EA66E23D80001DD2B5F
:10061000E3D71200F29E49EC07F0B50E0001DE5D53
:1006200005E0030ED36E0300FED7FF00550EA76E44
:10063000AA0EA76EA682A6B2FED7A6941200090043
:1006400012003A0E0301D880B6550001D325EA6A9C
:1006500012000001B50EDE6F0AEF03F0F2DF760F35
:08066000E96E030EEA2212000C
:080668006DB697DA0001BE6BCC
:1006700050EF03F00001BE0501E18FDA6D6A150E3F
:100680006F6E696A6D8691D80001010EB76FBE6BFF
:1006900012006D926D6A0001B76B010EBE6F120001
:1006A0000001BE0501E112006DA6E4DF1200F8DFD3
:1006B0000001B75101E1120068B46ED86DB21200AA
:1006C00068B073D868B859D8030E0001B75D01E26D
:1006D0001200A06B040EA05D4FE268A64DD06CCF57
:1006E000BBF07C0E6C143EE16CB204D0000EBF6F08
:1006F000040E03D0040EBF6F040EC06F6896BFC017
:10070000E9FFEA6EEF503C0BE842E8420D0831E1A8
:10071000C16BC151006E016A080E005C000E0158E9
:100720001FE2BFC0E9FFC0C0EAFF020EE926000ECB
:10073000EA22EECFF3FFEDCFF4FFEE2AEF22F3CF64
:10074000E9FFF4CFEAFFEF50E66EC151EA6AAA0F63
:10075000E96E000EEA22E552E750EF6EC12BD9D7C1
:1007600041D807D0040E6C5C03E1689657D801D0DD
:1007700068960001A02BAED7120069CFC2F0040E1C
:10078000696E68986D82A19AA08A50EC07F0A09AD1
:100790000001C251691212004AEC07F06D9269948F
:1007A00068A402D06894FCD712000001030EB76F52
:1007B0006B6A686A7B0E696E6E6A30DA160E706E4E
:1007C0006D8C68A603D06896FCD9FBD76D9C6D989C
:1007D0000001040EB36F0ADAB86BB96B0301FE6B4C
:1007E0005BEF07F00401086B0001A96B040100AF87
:1007F00003D0006B0001B26B040104AF04D0046BA2
:100800000001010EB26F0001A16BA26BA76BA86B78
:100810006D989FD863EC07F061EF04F0040E0001BF
:10082000B75D09E1ACC06EFF6E50000802E2050E34
:1008300001D0030EB76FA10512E112D8020E00011C
:10084000A95D05E10401040E086F088F1200040180
:1008500008BD02D0480E01D0080E086F088F1200A4
:100860000001080EC36FA75D000EA8590AE2A7C0D9
:10087000C3F0A95102E1010E03D0A90502E1020E65
:10088000A96FC3C009F4C351006E016A0050A75F8D
:100890000150A85B240EA56F040EA66FB8A306D066
:1008A000C3510EE0CBD98FD9C1D9FAD7C35108E0D3
:1008B000A3C0E9FFA4C0EAFFEF5085D9B7D9F6D7A6
:1008C00012000001A2510EE10401040E086F088F0E
:1008D0000001B36FB20504E19CD90001B26B1200B4
:1008E000F6EF05F0AAAF1CD0010EA16FA751B05DC5
:1008F000A851B15904E2B0C0A7F0B1C0A8F0B0DF70
:100900000001480EB36F85D90001C56B22D90401DF
:10091000240E0A6F040E0B6F480E086F088F12002A
:10092000020EA16F040EB36FB051B11102E1480E77
:10093000B36FB20504E16DD90001B26B01D056D995
:10094000B051B11105E10401096B480E086F088F21
:1009500012000001AA51600BE842E842E842E84276
:10096000E842000901E01200AB51070A41E00B0A1E
:100970003FE0070A32E0010A23E00B0A1FE0020A07
:100980001DE0030A19E0080A10E0010A0CE00F0A52
:1009900008E0030A01E01200010EA26F040EB76F17
:1009A0001200F9EF04F02FEF05F0010EA26FB90E5F
:1009B000A36F000EA46F0DD04EEF05F07DEF05F094
:1009C000010EA26FAE51A36FA46BBA0EA327000E47
:1009D000A423B893010EA76F1200010EA26FAE51AF
:1009E000EA6ABA0FE96E000EEA22ACC0EFFF12000D
:1009F0001200800E0001AA5D31E1AD51030A18E03A
:100A0000010A0BE0030A29E1010EA26FCA0EA36FCF
:100A10000E0EA46F120EA76F20D0010EAC5D1DE26A
:100A2000010EA26FDC0EA36F0E0EA46F290E13D061
:100A3000010EA26FAC51F66EF76AD890F636F73613
:100A4000800EF6260F0EF7220900F5CFA3F00A005C
:100A5000F5CFA4F0F3D8A76FA86BB88312000001FC
:100A6000010EA26FDBD8C46B010EC45D09E2C45154
:100A7000EA6ABA0FE96E000EEA22EF6AC42BF4D7D5
:100A8000ACC0B9F0ACC0FEF35BEC07F00001AC51B8
:100A900002E1050E01D0060EB76F12000401246BAF
:100AA000256B0001AA511F0B020A11E0030A0CE09A
:100AB000010A18E1010EA26F040124810001B8A10E
:100AC00011D0040124830ED0010EA26F0BD080D868
:100AD00001E0010E92D877D8EF50040B03E0040137
:100AE000010E246F0001A20507E1240EA36F040E7E
:100AF000A46FB893020EA76F12000001AC050CE1C1
:100B0000AA511F0B000908E1010EA26F030EAB5D95
:100B100002E1B88101D0B891AC511AE1AA511F0B82
:100B2000020816E1AE510F0B000912E051D801E0A6
:100B3000010E63D8030EAB5D03E1040E25EF06F052
:100B4000AEAF04D0400E3FD8EF6E1200080E7DD835
:100B500012000001080EB46F1C0EB56F040EB66FC4
:100B6000C55107E1140EB56F040EB66FC66B040EC7
:100B700002D0040EC66FC76FC6C0E9FFEA6EB3C0ED
:100B8000EEFFB4C0EEFFB5C0EEFFB6C0EEFFC6C0CC
:100B9000E9FFC7C0EAFFEF8E12006D926D6A000197
:100BA000C869C96903D80001B76B12000001C851B8
:100BB000C91106E006D80001C807000EC95BF6D7C8
:100BC000120004001200A5C0E9FFA6C0EAFF12004F
:100BD000010EA26FAE510F0B080DF350016A000F0A
:100BE000006E040E0122AE51800B12000001C56B95
:100BF000B0DF0001010EB26F1200040DF3500024AB
:100C0000A56F000E0120A66F040EA527000EA623D7
:100C100012000001010EC56FA9EF05F0716A726A3A
:100C2000736A746A756A766A776A1200EF6EA52B2A
:100C3000000EA623A32BA423C3071200A3C0F6FF14
:100C4000A4C0F7FF0800F5501200BDDFEF6EBBDF58
:040C5000EF8E120011
:0C0C54000001AA511F0B010801E0120072
:100C6000AE5101E01200060EAB5D21E1AD51230A49
:100C70001CE0010A0AE0030A18E1BBD80001EE0EED
:100C8000A36F0E0EA46F090E0DD0B3D80001B905E5
:100C900005E10001630EA36F0F0EA46F0001B905FB
:100CA00004E11D0E0001A76FA86B0001B8830001CD
:100CB000AA51600BE842E842E842E842E8420108F3
:100CC00001E01200AB510B0A25E0080A17E0090AFF
:100CD00011E0080A09E00B0A05E0080A01E0120029
:100CE0008EEF06F08FEF06F084D80001F20EA36FAE
:100CF000030E09D07ED8ADC0F2F312007AD80001FD
:100D0000F30EA36F030EA46F0001B8930001010E50
:100D1000A76F12006ED8ACC0F3F3120012001200DD
:100D20000301F46B1E0E716E0401400E0D6F2C0E4C
:100D30000E6F040E0F6F080E0C6F0C8F04016C0EFB
:100D4000126F040E136F400E106F12000301F75163
:100D5000400802E2400EF76FF86BF751F85D13E2BE
:100D6000F851EA6AF525E96EF651EA22EF50E66E8F
:100D7000F851EA6A6C0FE96E040EEA22E552E75078
:100D8000EF6EF82BEAD7F7C311F4400E04011017E9
:100D9000107D1087108F12000301F46B04010CBF4B
:100DA00025D00D510301D880FB5502E20DC4FBF3A1
:100DB000F46BFB51F45D13E2F451EA6A2C0FE96E17
:100DC000040EEA22EF50E66EF451EA6AF925E96E64
:100DD000FA51EA22E552E750EF6EF42BEAD704010C
:100DE000400E0D6F0C170C7D0C870C8F0301F45116
:0A0DF00012000001020EA26F1200B3
:060DFA00938E938CA66AA3
:100E0000A96AA680550EA85C03E118EC00F002D098
:100E100000EF08F0060EF66E100EF76E0900F5CF23
:100E200000F00800F5CF01F00D0E001802E1600E91
:100E3000011810E1F66A100EF76E0900F5CF00F008
:100E40000800F5CF01F00001001C01E1011C02E0E7
:100E500000EF08F018EC00F0120089828990899464
:100E600034EC03F02CEC00F0898034EF03F0000147
:100E7000DF07000EE05BDF51E0110AE1DF6B4E0E91
:100E8000E06F060E0001B75D02E2899012008970E2
:100E9000120012000001C86B030EC96FD6EF05F0F7
:100EA00089800300A150200B05E1D050080B02E11E
:100EB0000300F8D712000301FE0504E190EC06F0F0
:0A0EC0002CEC00F012002AEF06F0FF
:060ECA001201000200000D
:100ED0000008D8043C0001010102000109022900B8
:100EE0000101008032090400000203000000092112
:100EF00011010001221D00070581034000010705C3
:100F000001034000010403090434034D0069006338
:100F10000072006F006300680069007000200054D8
:100F2000006500630068006E006F006C006F006772
:100F3000007900200049006E0063002E002603485F
:100F400000490044002000550053004200200042A8
:100F5000006F006F0074006C006F0061006400653A
:100F60000072000600FF0901A101190129401500C6
:100F700026FF00750895408100190129409100C0A5
:060F8000050F090F3D0FF3
:0A0F8600000EF36E00EE00F0080EFE
:100F900001D81200EA6002D0EE6AFCD7F350E96093
:060FA0001200EE6AFCD70E
:021006000D607B
:020000040030CA
:0100000024DB
:010001000EF0
:010002003FBE
:010003001EDE
:010005008179
:010006008178
:010008000FE8
:01000900C036
:01000A000FE6
:01000B00E014
:01000C000FE4
:01000D0040B2
:00000001FF
