:020000040000FA
:060000002DEF2AF01200B2
:0600080004EF08F01200F5
:060018000CEF08F01200DD
:061000002DEF2AF01200A2
:02100600FFFFEA
:061008001DEF08F01200CC
:021016000001D7
:0610180068EF08F0120071
:101020000200A9540000C9050000180000008E54F9
:0A1030000000AE0500001B000000E8
:06103A00DACFE4FFE2CF73
:10104000DAFFE9CFE4FFEACFE4FFF6CFE4FFF7CF22
:10105000E4FFF5CFE4FFF3CFE4FFF4CFE4FFFACFF2
:10106000E4FF00EE1AF00B0EE80403E3EECFE4FF1A
:10107000FBD700EE00F01A0EE80403E3EECFE4FF26
:10108000FBD7E652E2EC16F0E55200EE19F01A0E2C
:10109000E80403E3E5CFEDFFFBD700EE24F00B0EF1
:1010A000E80403E3E5CFEDFFFBD7E5CFFAFFE5CF9B
:1010B000F4FFE5CFF3FFE5CFF5FFE5CFF7FFE5CF91
:1010C000F6FFE5CFEAFFE5CFE9FFE5CFDAFF110054
:1010D000D8CFE4FFE0CFE4FFE46EDACFE4FFE2CF65
:1010E000DAFFE652E552E5CFDAFFE550E5CFE0FF63
:1010F000E5CFD8FF100007D848EC20F031EC20F005
:1011000038D8FED71200800E9B6E700ED36E100E74
:10111000D26ED2AEFED7B50EE96E0F0EEA6E900E0D
:10112000EF6E0F015B6B0F015C6B0F015D6B896AEA
:101130008A6A8B6A926A936A946A800EE66EE66A9D
:10114000020EE66E75EC29F0E552E552E552050116
:10115000C96BCA6B0501CB6BCC6B899E89888B925E
:101160000501010ECD6F4CEC16F00001010EFD6F74
:1011700012000501CE6BCF6BD06BD16B0501D36B29
:101180000501D46B0501D56B0501D66B97EC12F008
:10119000200E0501E76E8019E8AE02D0E73402D0D8
:1011A000E750805D03E36050020B02E096EF12F01F
:1011B0000501C951CA1102E1000E08D0C9C5E9FFF5
:1011C000CAC5EAFFEF50800B01E0010E000902E002
:1011D0004CEF12F005010051790A02E1FAEF11F02B
:1011E000010A02E1BCEF11F02D0A02E1ACEF11F0AF
:1011F000050A02E195EF0DF0070A01E15AD1040A50
:1012000001E115D1180A01E1D2D0080A63E0110A00
:1012100002E039EF12F00501BF6B0501C06B05015B
:10122000C16B0501C26B0501C36B89980501D66BC3
:101230000501D36B0501D46B0501D56B0001010ECF
:10124000B56F0001B46B0501BF5116E18AEC20F0C7
:101250000501D32B0A0E0501D35D0DE1897E050141
:10126000D36B0501D62B140E0501D65D04E16FEC9E
:1012700013F096EF12F0E7D7F2EC13F0020802E059
:1012800039EF12F00501CB51CC1102E1000E08D06C
:10129000CBC5E9FFCCC5EAFFEF50800B01E0010EA2
:1012A000000914E1400EE66E400EE66E050EE66E95
:1012B000010EE66E010EE66E50EC1FF0006E050E9C
:1012C000E15E0050F3CFCBF5F4CFCCF5D5EC13F0C5
:1012D00039EF12F00501BF6B0501C06B0501C16B51
:1012E0000501C26B0501C36B89980501D66B050129
:1012F000D36B0501D46B0501D56B0001010EB56FF1
:1013000000010C0EB46F0501BF5116E18AEC20F00C
:101310000501D32B0A0E0501D35D0DE1897E050180
:10132000D36B0501D62B140E0501D65D04E16FECDD
:1013300013F096EF12F0E7D70501D66B400E0501CA
:10134000D65D0BE20501D651EA6A400FE96E050E43
:10135000EA22EF680501D62BF1D7B7EC15F00501AD
:10136000CB51CC1102E1000E08D0CBC5E9FFCCC5B2
:10137000EAFFEF50800B01E0010E000914E1400E7E
:10138000E66E400EE66E050EE66E010EE66E010E8E
:10139000E66E50EC1FF0006E050EE15E0050F3CFDC
:1013A000CBF5F4CFCCF5D5EC13F039EF12F0050105
:1013B000010ED76F0501D66B400E0501D65D0BE21D
:1013C0000501D651EA6A400FE96E050EEA22EF6880
:1013D0000501D62BF1D705014F0E406F05014B0ECD
:1013E000416F0501CB51CC1102E1000E08D0CBC5F5
:1013F000E9FFCCC5EAFFEF50800B01E0010E0009C8
:1014000014E1400EE66E400EE66E050EE66E010E2D
:10141000E66E010EE66E50EC1FF0006E050EE15E0A
:101420000050F3CFCBF5F4CFCCF539EF12F0050136
:10143000D70502E10501D76B0501D66B400E05010A
:10144000D65D0BE20501D651EA6A400FE96E050E42
:10145000EA22EF680501D62BF1D705014F0E406F48
:1014600005014B0E416F0501CB51CC1102E1000E7D
:1014700008D0CBC5E9FFCCC5EAFFEF50800B01E0F7
:10148000010E000914E1400EE66E400EE66E050EF8
:10149000E66E010EE66E010EE66E50EC1FF0006E79
:1014A000050EE15E0050F3CFCBF5F4CFCCF539EF6C
:1014B00012F00501BF6B0501C06B0501C16B050191
:1014C000C26B0501C36B89980501D66B400E0501FF
:1014D000D65D0BE20501D651EA6A400FE96E050EB2
:1014E000EA22EF680501D62BF1D73FEC28F0000186
:1014F000B46B0001010EB56F0501D66B0501D36B0E
:101500000501D46B0501D56B0501BF5116E18AECCD
:1015100020F00501D32B0A0E0501D35D0DE1897E74
:101520000501D36B0501D62B140E0501D65D04E130
:101530006FEC13F096EF12F0E7D70001B56B0501E1
:10154000CB51CC1102E1000E08D0CBC5E9FFCCC5D0
:10155000EAFFEF50800B01E0010E000901E0E3D249
:101560000501490E406FBFC541F5C0C542F5C1C573
:1015700043F5C2C544F5C3C545F53FEC28F0050168
:10158000D66B100E0501D65D2BE21F0E0501D62588
:10159000EA6A000FE96E050EEA22EF50E66E0501D9
:1015A000D651EA6AD50FE96E000EEA22E552E750FD
:1015B000EF6E2F0E0501D625EA6A000FE96E050EC3
:1015C000EA22EF50E66E0501D651EA6AE50FE96EB0
:1015D000000EEA22E552E750EF6E0501D62BD1D777
:1015E0000001B46B0001020EB56F8AEC20F03FECF5
:1015F00028F0470E0501015D10E0480E0501015D70
:101600000CE04D0E0501015D08E0530E0501015D82
:1016100004E0500E0501015D03E101C5C6F004D0F0
:101620006FEC13F039EF12F00501D66B050E0501D2
:10163000D65D17E2150E0501D625EA6A000FE96EA0
:10164000050EEA22EF50E66E0501D651EA6AD50F83
:10165000E96E000EEA22E552E750EF6E0501D62B47
:10166000E5D70001040EB46F0001020EB56F8AECDD
:1016700020F03FEC28F005010239F00B0001C56FA6
:101680000F0E050103150001C52705010439F00BF4
:101690000001C66F0F0E050105150001C6270501E3
:1016A0000639F00B0001C76F0F0E05010715000189
:1016B000C72705010839F00B0001C86F0F0E05019F
:1016C00009150001C82705010A39F00B0001C96F8F
:1016D0000F0E05010B150001C9270001CA6B300E62
:1016E00005010C5D0501CE6FCF6B0501100ECF0318
:1016F000F3CFCFF5270ECE03F350CF27100ECE0336
:10170000F3CFCEF5F450CF270501D06BD16BCFAF1F
:1017100002D0D069D169300E05010D5D006E016AFD
:10172000E80E0102F3CF01F0030E0002F350012690
:10173000E80E0002F3CF00F0F4500126026A036ABB
:1017400001AE02D00268036800500501CE270150A7
:101750000501CF2302500501D02303500501D123F9
:101760000EC5D2F50501D251300817E2300E050141
:10177000D25D0501D26F0501D2510FE0640E050163
:10178000CE27000E0501CF23000E0501D023000E49
:101790000501D1230501D207EED7300E05010F5DFB
:1017A0000A0DF3CF00F0000100500501CE27000E16
:1017B000CF23D023D123300E0501105D006E000130
:1017C00000500501CE27000ECF23D023D123CFC553
:1017D00000F0D0C501F0D1C502F00001036A00C0DD
:1017E000CBF00501CE510001CC6F0501080ED66F7C
:1017F0000C0E0501D65D17E2090E0501D625EA6A31
:10180000000FE96E050EEA22EF50E66E0501D65193
:10181000EA6AC50FE96E000EEA22E552E750EF6E64
:101820000501D62BE5D70001080EB46F0001020EAA
:10183000B56F8AEC20F03FEC28F00001B46B00019A
:10184000010EB56F0501BF6B0501D66B0501D36BAA
:101850000501D46B0501D56B0501BF5116E18AEC7A
:1018600020F00501D32B0A0E0501D35D0DE1897E21
:101870000501D36B0501D62B140E0501D65D04E1DD
:101880006FEC13F096EF12F0E7D70501BF51050199
:10189000415D14E10501C0510501425D0FE1050103
:1018A000C1510501435D0AE10501C2510501445DD5
:1018B00005E10501C3510501455D04E06FEC13F03E
:1018C00039EF12F03FEC28F00001040EB46F000174
:1018D000010EB56F0501BF6B0501D66B0501D36B1A
:1018E0000501D46B0501D56B0501BF5116E18AECEA
:1018F00020F00501D32B0A0E0501D35D0DE1897E91
:101900000501D36B0501D62B140E0501D65D04E14C
:101910006FEC13F096EF12F0E7D73FEC28F00001E0
:10192000080EB46F0001010EB56F0501BF6B050114
:10193000D66B0501D36B0501D46B0501D56B050191
:10194000BF5116E18AEC20F00501D32B0A0E0501E8
:10195000D35D0DE1897E0501D36B0501D62B140EF5
:101960000501D65D04E16FEC13F096EF12F0E7D7B6
:10197000F00E0001C515006E05010239F00B005C88
:1019800001E0A3D00F0E0001C515016E0F0E050179
:101990000315015C01E099D0F00E0001C615026E3E
:1019A00005010439F00B025C01E08FD00F0E00013D
:1019B000C615036E0F0E05010515035C01E085D009
:1019C000F00E0001C715046E05010639F00B045C2A
:1019D00001E07BD00F0E0001C715056E0F0E05014B
:1019E0000715055C72E1F00E0001C815066E0501D1
:1019F0000839F00B065C69E10F0E0001C815076E8F
:101A00000F0E05010915075C60E1F00E0001C91514
:101A1000086E05010A39F00B085C57E10F0E000152
:101A2000C915096E0F0E05010B15095C4EE1000189
:101A3000CA514BE1CBC00AF00B6A0C6A0D6ACFC5E4
:101A40000EF0D0C50FF0D1C510F00001116A0A5098
:101A50000E1809E10B500F1806E10C50101803E1A5
:101A60000D50111800E131E1CCC012F0136A146A74
:101A7000156ACEC516F0CFC517F0D0C518F0D1C580
:101A800019F0176A186A196A1250161809E11350EA
:101A9000171806E11450181803E11550191800E141
:101AA00014E1050111510001CD5D0FE10501125155
:101AB0000001CE5D0AE1050113510001CF5D05E192
:101AC000050114510001D05D04E06FEC13F039EF13
:101AD00012F00501CB51CC1102E1000E08D0CBC5AC
:101AE000E9FFCCC5EAFFEF50800B01E0010E0009D1
:101AF00018E1FF0E0501405D14E0400EE66E400E59
:101B0000E66E050EE66E010EE66E010EE66E50EC18
:101B10001FF0006E050EE15E0050F3CFCBF5F4CF61
:101B2000CCF5D5EC13F039EF12F00501BF6B0501D0
:101B3000C06B0501C16B0501C26B0501C36B8998C0
:101B40000501D66B400E0501D65D0BE20501D651AD
:101B5000EA6A400FE96E050EEA22EF680501D62B0E
:101B6000F1D73FEC28F000010C0EB46F0001010E1C
:101B7000B56F0501D66B0501D36B0501D46B05016B
:101B8000D56B0501BF5116E18AEC20F00501D32B7E
:101B90000A0E0501D35D0DE1897E0501D36B0501B8
:101BA000D62B140E0501D65D04E16FEC13F096EF11
:101BB00012F0E7D70001B56B0501CB51CC1102E162
:101BC000000E08D0CBC5E9FFCCC5EAFFEF50800B73
:101BD00001E0010E000901E0BED30501490E406F8E
:101BE000BFC541F5C0C542F5C1C543F5C2C544F501
:101BF000C3C545F53FEC28F005010139F00B0001A4
:101C0000C56F0F0E050102150001C5270501033937
:101C1000F00B0001C66F0F0E050104150001C62769
:101C200005010539F00B0001C76F0F0E0501061500
:101C30000001C72705010739F00B0001C86F0F0E1F
:101C4000050108150001C82705010939F00B00013D
:101C5000C96F0F0E05010A150001C9270001CA6BE3
:101C6000300E05010B5D0A0DF3CFCBF0300E0501F0
:101C70000C5D0001CB270DC5CFF00001420ED06FE7
:101C80000EC5CCF0300E05010F5D0501CE6FCF6B98
:101C90000501100ECF03F3CFCFF5270ECE03F3507F
:101CA000CF27100ECE03F3CFCEF5F450CF2705018A
:101CB000D06BD16BCFAF02D0D069D169300E0501A6
:101CC000105D006E016AE80E0102F3CF01F0030E11
:101CD0000002F3500126E80E0002F3CF00F0F450AA
:101CE0000126026A036A01AE02D00268036800504E
:101CF0000501CE2701500501CF2302500501D02355
:101D000003500501D12311C5D2F50501D251300888
:101D100017E2300E0501D25D0501D26F0501D251E7
:101D20000FE0640E0501CE27000E0501CF23000E43
:101D30000501D023000E0501D1230501D207EED7FE
:101D4000300E0501125D0A0DF3CF00F000010050C6
:101D50000501CE27000ECF23D023D123300E05015D
:101D6000135D006E000100500501CE27000ECF2349
:101D7000D023D123CFC500F0D0C501F0D1C502F0EA
:101D80000001036A00C0CDF00501CE510001CE6F05
:101D9000300E0501155D0501CE6FCF6B0501100EEC
:101DA000CF03F3CFCFF5270ECE03F350CF27100E7E
:101DB000CE03F3CFCEF5F450CF270501D06BD16B16
:101DC000CFAF02D0D069D169300E0501165D006E2B
:101DD000016AE80E0102F3CF01F0030E0002F35096
:101DE0000126E80E0002F3CF00F0F4500126026A4B
:101DF000036A01AE02D00268036800500501CE27D5
:101E000001500501CF2302500501D02303500501E5
:101E1000D12317C5D2F50501D251300817E2300E93
:101E20000501D25D0501D26F0501D2510FE0640EAC
:101E30000501CE27000E0501CF23000E0501D0239A
:101E4000000E0501D1230501D207EED7300E0501A2
:101E5000185D0A0DF3CF00F0000100500501CE27F8
:101E6000000ECF23D023D123300E0501195D006E63
:101E7000000100500501CE27000ECF23D023D1232F
:101E8000CFC500F0D0C501F0D1C502F00001036A52
:101E900000C0DAF00501CE510001DB6F0001020E37
:101EA000B56F00010C0EB46F8AEC20F03FEC28F007
:101EB00000010C0EB46F0001010EB56F0501BF6B80
:101EC0000501D66B0501D36B0501D46B0501D56BFC
:101ED0000501BF5114E18AEC20F00501D32B0A0E55
:101EE0000501D35D0BE1897E0501D36B0501D62B7E
:101EF000140E0501D65D02E1F2DB18D3E9D7050126
:101F0000BF510501415D14E10501C0510501425D6C
:101F10000FE10501C1510501435D0AE10501C2510F
:101F20000501445D05E10501C3510501455D02E080
:101F3000D6DB9FD2F00E0001C515006E05010139F8
:101F4000F00B005C66E10F0E0001C515016E0F0E6F
:101F500005010215015C5DE1F00E0001C615026E7F
:101F600005010339F00B025C54E10F0E0001C615A8
:101F7000036E0F0E05010415035C4BE1F00E00012A
:101F8000C715046E05010539F00B045C42E10F0E24
:101F90000001C715056E0F0E05010615055C39E138
:101FA000F00E0001C815066E05010739F00B065C3E
:101FB00030E10F0E0001C815076E0F0E0501081560
:101FC000075C27E1F00E0001C915086E050109390B
:101FD000F00B085C1EE10F0E0001C915096E0F0E13
:101FE00005010A15095C15E10001CA5112E10F0E45
:101FF00005010C150A6E0F0E05010B150A0DF350A5
:102000000A240001CB5D05E105010E510001CC5D04
:1020100002E065DB2ED2300E05010F5D0501CE6FAB
:10202000CF6B0501100ECF03F3CFCFF5270ECE03F4
:10203000F350CF27100ECE03F3CFCEF5F450CF27B9
:102040000501D06BD16BCFAF02D0D069D169300E12
:102050000501105D006E016AE80E0102F3CF01F088
:10206000030E0002F3500126E80E0002F3CF00F049
:10207000F4500126026A036A01AE02D002680368C6
:1020800000500501CE2701500501CF230250050164
:10209000D02303500501D12311C5D2F50501D2513A
:1020A000300817E2300E0501D25D0501D26F05013F
:1020B000D2510FE0640E0501CE27000E0501CF239B
:1020C000000E0501D023000E0501D1230501D20722
:1020D000EED7300E0501125D0A0DF3CF00F00001BE
:1020E00000500501CE27000ECF23D023D123300E80
:1020F0000501135D006E000100500501CE27000EA2
:10210000CF23D023D123CDC000F0016A026A036A35
:10211000CFC504F0D0C505F0D1C506F00001076AAF
:10212000056A066A076A0050041809E1015005189B
:1021300006E10250061803E10350071800E102E02F
:10214000CEDA97D1CEC000F0016A026A036ACEC52A
:1021500004F0CFC505F0D0C506F0D1C507F0056A7B
:10216000066A076A0050041809E10150051806E1E3
:102170000250061803E10350071800E102E0AFDA4D
:1021800078D105010D510001CF5D04E1420E00013F
:10219000D05D02E0A4DA6DD1300E0501145D0501B9
:1021A000CE6FCF6B0501100ECF03F3CFCFF5270E07
:1021B000CE03F350CF27100ECE03F3CFCEF5F4505D
:1021C000CF270501D06BD16BCFAF02D0D069D169D9
:1021D000300E0501155D006E016AE80E0102F3CFB5
:1021E00001F0030E0002F3500126E80E0002F3CFC7
:1021F00000F0F4500126026A036A01AE02D00268C0
:10220000036800500501CE2701500501CF2302507D
:102210000501D02303500501D12316C5D2F50501D0
:10222000D251300817E2300E0501D25D0501D26FA0
:102230000501D2510FE0640E0501CE27000E050105
:10224000CF23000E0501D023000E0501D123050187
:10225000D207EED7300E0501175D0A0DF3CF00F05F
:10226000000100500501CE27000ECF23D023D1233B
:10227000300E0501185D006E000100500501CE27EB
:10228000000ECF23D023D123DAC000F0016A026A06
:10229000036ACFC504F0D0C505F0D1C506F0000132
:1022A000076A056A066A076A0050041809E10150C6
:1022B000051806E10250061803E10350071800E173
:1022C00002E00DDAD6D0DBC000F0016A026A036AD0
:1022D000CEC504F0CFC505F0D0C506F0D1C507F0D6
:1022E000056A066A076A0050041809E101500518DA
:1022F00006E10250061803E10350071800E102E06E
:10230000EED9B7D00501CB51CC1102E1000E08D0B7
:10231000CBC5E9FFCCC5EAFFEF50800B01E0010E11
:10232000000918E1FF0E0501405D14E0400EE66E65
:10233000400EE66E050EE66E010EE66E010EE66ECE
:1023400050EC1FF0006E050EE15E0050F3CFCBF5B0
:10235000F4CFCCF52ADA8DD02BEC20F0A394676A69
:10236000656A606A646A0501806BC69A92689368C0
:1023700094680EEF00F07DD00501D66B400E05018C
:10238000D65D0BE20501D651EA6A400FE96E050EF3
:10239000EA22EF680501D62BF1D70001FD6B05019C
:1023A0004F0E406F05014B0E416F0501CB51CC1113
:1023B00002E1000E08D0CBC5E9FFCCC5EAFFEF5023
:1023C000800B01E0010E000914E1400EE66E400EA4
:1023D000E66E050EE66E010EE66E010EE66E50EC40
:1023E0001FF0006E050EE15E0050F3CFCBF5F4CF89
:1023F000CCF53FD00501D66B400E0501D65D0BE252
:102400000501D651EA6A400FE96E050EEA22EF682F
:102410000501D62BF1D70001010EFD6F05014F0E0E
:10242000406F05014B0E416F0501CB51CC1102E10C
:10243000000E08D0CBC5E9FFCCC5EAFFEF50800BFA
:1024400001E0010E000914E1400EE66E400EE66E5A
:10245000050EE66E010EE66E010EE66E50EC1FF004
:10246000006E050EE15E0050F3CFCBF5F4CFCCF556
:1024700000D0400EE66E000EE66E050EE66EE66AD1
:10248000010EE66E50EC1FF0006E050EE15E00508E
:10249000F3CFC9F5F4CFCAF50501D75105E1050120
:1024A000D8690F0ED96F42D00501D7053FE105016C
:1024B000D82B000ED9230501FF0ED880D8550F0E5A
:1024C000D9550AE20501D86BD96B0001010EB56F31
:1024D0000001B46B8AEC20F00501BF5127E082D9DE
:1024E000020824E10501CB51CC1102E1000E08D015
:1024F000CBC5E9FFCCC5EAFFEF50800B01E0010E30
:10250000000914E1400EE66E400EE66E050EE66E22
:10251000010EE66E010EE66E50EC1FF0006E050E29
:10252000E15E0050F3CFCBF5F4CFCCF512000501FE
:10253000DF51E01105E10501100EDF6F270EE06F9E
:102540000501DF07000EE05B60A206D00501DF5148
:10255000E01101E1897825D00501805102E18998D7
:1025600020D00501800502E189881BD0020E0501FB
:10257000805D02E1898815D0040E0501805D02E1CD
:1025800089980FD0100E0501805D06E10501DF512D
:10259000E01101E1897805D0200E0501805D01E19F
:1025A00089881200120012001200120064EC28F058
:1025B000120012001E0EE66E010EE66EA9EC1EF071
:1025C000E552E552400EE66E000EE66E050EE66E32
:1025D000E66A010EE66E50EC1FF0006E050EE15E3D
:1025E0000050F3CFC9F5F4CFCAF5120005019F05DD
:1025F00025E10501A00522E1A394D5DF6092050144
:10260000A06B0001100EFE6F0E0EFF6F0001FE07A3
:10261000000EFF5B0001FE51FF11F8E16084000134
:10262000080EFE6F070EFF6F0001FE07000EFF5B36
:102630000001FE51FF11F8E16094A3841200D9CF8C
:10264000E6FFE1CFD9FFFD0EDBCF20F0FE0EDBCFA2
:1026500021F0050E201801E1215039E0E86820182A
:1026600002E17F0E211831E0030E201801E1215014
:102670002AE0020E201801E1215023E0010E20186B
:1026800001E121501CE0740E201801E1215015E0F9
:10269000750E201801E121500EE0730E201801E1A3
:1026A000215007E0720E201801E1215001E010D006
:1026B00010D07ADF0ED076DF0CD075DF0AD07ADF4B
:1026C00008D077DF06D072DF04D06FDF02D001D0F0
:1026D00000D0010E00D0E552E7CFD9FF1200D9CFCC
:1026E000E6FFE1CFD9FFE6520001FD0501E18B8253
:1026F000898EFA0EE66EDFEC29F0E552FA0EE66EF0
:10270000DFEC29F0E552FA0EE66EDFEC29F0E55237
:102710008B92899EDF6A400EDF5C10E2DF50EA6A2E
:10272000000FE96E050EEA22EF68DF50EA6A400FFB
:10273000E96E050EEA22EF68DF2AEDD70001B56BDE
:102740000501460E406F0501410E416F0501490E1E
:10275000426F05014C0E436F0501CB51CC1102E1D4
:10276000000E08D0CBC5E9FFCCC5EAFFEF50800BC7
:1027700001E0010E000914E1400EE66E400EE66E27
:10278000050EE66E010EE66E010EE66E50EC1FF0D1
:10279000006E050EE15E0050F3CFCBF5F4CFCCF523
:1027A000E552E552E7CFD9FF12000501D66B030EC3
:1027B0000501D65D14E20001FD0501E18B82898EE1
:1027C000280EE66EDFEC29F0E5528B92899E640EAE
:1027D000E66EDFEC29F0E5520501D62BE8D70501BE
:1027E000D66B12000501490E406FBFC541F5C0C54B
:1027F00042F5C1C543F5C2C544F5C3C545F505015C
:10280000D66B100E0501D65D17E20501D651EA6AB6
:10281000E50FE96E000EEA22EF50E66E300E05017C
:10282000D625EA6A400FE96E050EEA22E552E75026
:10283000EF6E0501D62BE5D70001010EB56F000143
:10284000040EB46F0501D66B0501D36B0501D46B83
:102850000501D56B0501BF6B0501BF5115E18AEC80
:1028600020F00501D32B0A0E0501D35D0CE1897E12
:102870000501D36B0501D62B0A0E0501D65D03E1D8
:102880002EDF010E73D1E8D70501470E466F050113
:10289000D66B100E0501D65D3EE20501D651EA6AFF
:1028A000C50FE96E000EEA22EF50470828E0050147
:1028B000D651EA6AC50FE96E000EEA22EF504808C9
:1028C0001EE00501D651EA6AC50FE96E000EEA2244
:1028D000EF504D0814E00501D651EA6AC50FE96EC4
:1028E000000EEA22EF5053080AE00501D651EA6AC9
:1028F000C50FE96E000EEA22EF50500809E105010C
:10290000D651EA6AC50FE96E000EEA22EFCF47F50D
:102910000501D62BBED7D5C060F5D6C061F5D7C0AE
:1029200062F5D8C063F5D9C064F50001010EB56F3A
:102930000001080EB46F0501D66B0501D36B0501CC
:10294000D46B0501D56B0501BF6B0501BF5115E1C6
:102950008AEC20F00501D32B0A0E0501D35D0CE1B2
:10296000897E0501D36B0501D62B0A0E0501D65DC4
:1029700003E1B5DE010EFAD0E8D70501540E486F29
:102980000001C5390F0B300F0501496F0F0E000113
:10299000C515300F05014A6F0001C6390F0B300F06
:1029A00005014B6F0F0E0001C615300F05014C6F6E
:1029B0000001C7390F0B300F05014D6F0F0E0001DD
:1029C000C715300F05014E6F0001C8390F0B300FCE
:1029D00005014F6F0F0E0001C815300F0501506F34
:1029E0000001C9390F0B300F0501516F0F0E0001A7
:1029F000C915300F0501526F0001CA390F0B300F96
:102A00000501536F0F0E0001CA15300F0501546FF9
:102A10000501410E556F0501300E566F0501300E50
:102A2000576F0501300E586F0501300E596F0501C3
:102A3000300E5A6FCBC0CEF50501CF6BD06BD16B8A
:102A4000D0C5D1F5CFC5D0F5CEC5CFF50501CE6B3C
:102A50000001CC510501CE27000ECF23D023D12376
:102A6000D8800F0E0501CE55270ECF55000ED0553C
:102A7000000ED1550FE2100E0501CE5F270E0501A5
:102A8000CF5B000E0501D05B000E0501D15B050197
:102A9000562BE6D7D880E70E0501CE55030ECF554D
:102AA000000ED055000ED1550FE2E80E0501CE5FA5
:102AB000030E0501CF5B000E0501D05B000E050182
:102AC000D15B0501572BE6D7D880630E0501CE55A3
:102AD000000ECF55000ED055000ED1550FE2640EFA
:102AE0000501CE5F000E0501CF5B000E0501D05B36
:102AF000000E0501D15B0501582BE6D7D880090EE1
:102B00000501CE55000ECF55000ED055000ED15503
:102B10000FE20A0E0501CE5F000E0501CF5B000E2D
:102B20000501D05B000E0501D15B0501592BE6D7ED
:102B3000CEC500F0CFC501F0D0C502F0D1C503F07D
:102B4000300E0026000E0122000E0222000E03228B
:102B500000C05AF5CDC05BF5CEC05CF5CFC05DF5C9
:102B6000D0C05EF50001B56B020E00D01200050169
:102B7000490E406FBFC541F5C0C542F5C1C543F51B
:102B8000C2C544F5C3C545F50501450E466FC5C030
:102B900047F5C6C048F5C7C049F5C8C04AF5C9C021
:102BA0004BF50501550E4C6FCAC04DF50501440E9D
:102BB0004E6FCCC04FF5CDC050F50501430E516F9F
:102BC000CEC052F50501470E536FCFC054F5050135
:102BD000460E556FD0C056F5D1C057F50501500EC1
:102BE000586FD2C059F505014D0E5A6FD5C05BF52F
:102BF000D6C05CF5D7C05DF5D8C05EF50501540EB2
:102C00005F6FD9C060F5DAC061F5DBC062F5DCC08A
:102C100063F50501570E646FDDC065F5DEC066F52E
:102C2000DFC067F5E0C068F50501480E696FE1C0D7
:102C30006AF5E2C06BF5E3C06CF5E4C06DF5050123
:102C4000460E6E6FE5C06FF5E6C070F5E7C071F532
:102C5000E8C072F50501530E736FE9C074F5EAC060
:102C600075F5EBC076F5ECC077F505014E0E786F83
:102C7000EDC079F5EEC07AF5EFC07BF5F0C07CF5DC
:102C800005017F0E7D6F05017F0E7E6F05017F0EB2
:082C90007F6F1200FF0012002B
:082C9800D9CFE6FFE1CFD9FF1F
:102CA000E652A394676A656A6A6A010EE66EE66A8E
:102CB000E66A6B0EE66E0F0EE66EC5EC29F0006E4E
:102CC000050EE15E0050160E626E9F0E666E7B0E64
:102CD000646EDF6ADF50006E016A080E005C000E51
:102CE000015810E2DF50040DF3CFE9FFF4CFEAFF03
:102CF000000EE926040EEA22EE6AEE6AEE6AEE6A39
:102D0000DF2AE8D7608C636A6098609C65A609D06A
:102D100065960501936B0501986B0501996B9A6B9C
:102D2000F5D70501010EAA6F0501010EAB6F050174
:102D3000AC6B0501AD6B0501A06BDF6A020EDF5CB9
:102D400026E2EA6ADF34FE0BEA36E96E8B0EE926EC
:102D5000050EEA22EE6AED6AEA6ADF34FE0BEA3615
:102D6000E96E870EE926050EEA22EE6AED6ADF506B
:102D7000EA6AA40FE96E050EEA22EF6ADF50EA6AFA
:102D8000A60FE96E050EEA22EF6ADF2AD7D7050102
:102D9000080E8B6F040E8C6F160E6A6E0401200EE7
:102DA000026F040E036F0401080E016F0401840E0C
:102DB000006F0501816B0501806BE552E552E7CF9D
:102DC000D9FF1200D9CFE6FFE1CFD9FFE6520501C6
:102DD000800508E160BA06D0656A648064880501F0
:102DE000020E806F6550040B05E06450040B02E096
:102DF0006594CBD860A202D0A49493D06550010B07
:102E000009E06450010B06E047DFA3840501040ECE
:102E1000806F65906550100B05E06450100B02E068
:102E20009ED8659865AC12D064AC0FD0010EE66EEA
:102E3000E66A000EE66EE66A730EE66EE66A1FEC60
:102E400013F0006E060EE15E0050659C6550200B8D
:102E500004E06450200B01E069D86550020B13E0D8
:102E60006450020B10E0010EE66EE66A000EE66E9C
:102E7000E66AE6687F0EE66E1FEC13F0006E060E43
:102E8000E15E0050676A040E0501E76E8019E8AE46
:102E900002D0E73402D0E750805D02E2A49441D032
:102EA00064A63ED0DF6A040EDF5C3AE265A635D048
:102EB00061CFA1F50501A151780BE842E842E84253
:102EC0000501A26F65960501A1B509D00501A251C2
:102ED000EA6AA60FE96E050EEA22EF7008D0050136
:102EE000A251EA6AA40FE96E050EEA22EF7005010D
:102EF000A25102E162D810D0000EE66EE66AA10E81
:102F0000E66E050EE66E720EE66EE66A1FEC13F0D4
:102F1000006E060EE15E005001D002D0DF2AC3D75A
:102F2000A494E552E552E7CFD9FF12006AA015D06C
:102F300083C5E9FF84C5EAFFEF5080080DE18BC52A
:102F4000E9FF8CC5EAFFEF50840806E183C5E9FF7D
:102F500084C5EAFF8C0EEF6E6A90659A1200648455
:102F6000659860820501010EA06F000EE66EE66AAC
:102F7000000EE66EE66A750EE66EE66A1FEC13F06A
:102F8000006E060EE15E005012000501A06B000EFF
:102F9000E66EE66A000EE66EE66A740EE66EE66AB5
:102FA0001FEC13F0006E060EE15E00506092649418
:102FB00065A402D06594FCD71200D9CFE6FFE1CF1B
:102FC000D9FFE652FD0E0501A11558E17E0E05015F
:102FD000A115E8407F0B040DF3CF83F5F4CF84F502
:102FE000000E05018327040E0501842383C585F5A2
:102FF00084C586F50501857583C5E9FF84C5EAFFAB
:10300000EF503C0BE842E8420D0836E1DF6A080E5B
:10301000DF5C24E283C5E9FF84C5EAFF020EE926EE
:10302000000EEA22EE50EFCFEAFFE96EEF50E66EB7
:10303000DF50EA6A200FE96E040EEA22E552E750FB
:10304000EF6E83C5E9FF84C5EAFF020EE926000E94
:10305000EA22EE2A000EEF22DF2AD9D783C5E9FF44
:1030600084C5EAFF020EE926000EEA22200EEE6E6B
:10307000040EED6E0ED801D047D806D0FD0E050126
:10308000A115040801E169D8E552E552E7CFD9FF5F
:10309000120005018F6B0501A96B0501AC6B0501E1
:1030A000AD6B0501A36B0501906B8BC5E9FF8CC56A
:1030B000EAFFEF9E05018B758BC5E9FF8CC5EAFF22
:1030C000EF9E05018B7585C5E9FF86C5EAFFEF9E7A
:1030D0000501936B0501946B956B0501986B0501D8
:1030E000996B9A6B9BD8000EE66EE66A000EE66E50
:1030F000E66A030EE66EE66A1FEC13F0006E060E3B
:10310000E15E0050C4DB1200020E0501905D03E198
:1031100023EC1DF021D00501906B0501A3511AE1AC
:1031200085C5E9FF86C5EAFFEE52080EEF6E85C53C
:10313000E9FF86C5EAFF020EE926000EEA22200E0C
:10314000EE6E040EED6E85C5E9FF86C5EAFF8C0EB6
:10315000EF6E02D00501A36B1200D9CFE6FFE1CFDD
:10316000D9FFE6528BC5E9FF8CC5EAFFEF50400B53
:1031700001E0010EDF6E05018B75080E0501805D13
:103180000BE122C463FF635004E00501100E806F61
:1031900003D00501040E806F0501900528E18BC561
:1031A000E9FF8CC5EAFF020EE926000EEA22280E8E
:1031B000EE6E040EED6ED6DB020E05018F5D07E1AB
:1031C0008BC5E9FF8CC5EAFF840EEF6E0FD0DF5090
:1031D00007E18BC5E9FF8CC5EAFFC80EEF6E06D08C
:1031E0008BC5E9FF8CC5EAFF880EEF6E12D0050192
:1031F00098AF0DD005019B519C1107E005D09CC5EF
:10320000FAFF05019B51F96EFADF0501989F050150
:10321000906BE552E552E7CFD9FF1200040120512F
:10322000600BE842E842E842E842E842000901E077
:1032300065D0040121510C0A60E00B0A4EE00C0A33
:1032400040E0010A2BE00B0A27E0020A25E0030A0E
:1032500021E0080A12E0010A0DE00F0A09E0030A62
:1032600001E04BD00501938F0501080E806F46D019
:103270003ADA44D0CBEC1DF041D00501810E916FBC
:10328000050E926F050193810501010E946F0501F2
:10329000938F34D08EDA32D032D830D0040124511A
:1032A0000501916F926B820E05019127050E0501B4
:1032B0009223050193810501010E946F0501938FFF
:1032C0001DD00501938F04012451EA6A820FE96E33
:1032D000050EEA2222C4EFFF11D0000EE66EE66A68
:1032E000000EE66EE66A020EE66EE66A1FEC13F06A
:1032F000006E060EE15E005001D000D01200D9CF62
:10330000E6FFE1CFD9FF050EE1260401220511E118
:10331000040120511F0B00090CE10501938F030EDE
:103320000401215D04E10501010E9F6F02D005013A
:103330009F6B0401225101E031D1040120511F0B88
:10334000020801E02BD1040124510F0B000901E117
:1033500025D1040124510F0B010801E21FD1200ED9
:103360000501805D01E01AD10501938F040124BF9E
:103370001CD0040124510F0BE96EEA6AD890E9369B
:10338000EA36870EE926050EEA22EECFDEFFEDCF04
:10339000DDFF040124510F0BEA6AA60FE96E050E4A
:1033A000EA22020EEFCFDBFF1BD0040124510F0BEA
:1033B000E96EEA6AD890E936EA368B0EE926050E00
:1033C000EA22EECFDEFFEDCFDDFF040124510F0B2B
:1033D000EA6AA40FE96E050EEA22020EEFCFDBFFC8
:1033E000D950020FE96EDACFEAFFEF50010B03E18B
:1033F000000EDB9401D0DF84040124BF11D004014E
:1034000024510F0BE96EEA6AD890E936EA36870E46
:10341000E926050EEA22DECFEEFFDDCFEDFF10D06C
:10342000040124510F0BE96EEA6AD890E936EA36B6
:103430008B0EE926050EEA22DECFEEFFDDCFEDFF93
:10344000030E0401215D26E1DECFE9FFDDCFEAFFB7
:10345000EF50800B16E0040124BF0AD00401245170
:103460000F0BEA6AA60FE96E050EEA22EF8209D079
:10347000040124510F0BEA6AA40FE96E050EEA223B
:10348000EF82840E006EDECFE9FFDDCFEAFF005051
:10349000EF1284D0DF74DECFE9FFDDCFEAFFEF501B
:1034A000800B1BE0DECFE9FFDDCFEAFFEF9EDECF32
:1034B000E9FFDDCFEAFFEF8C020EE66EE66ADECFB3
:1034C000E6FFDDCFE6FF050EE66EE66A1FEC13F0C1
:1034D000006E060EE15E005005D0DECFE9FFDDCFC5
:1034E000EAFFEF8CDF74D950020FE96EDACFEAFF02
:1034F000EF50020B07E1DECFE9FFDDCFEAFFEF502F
:10350000800B2FE0040124BF0AD0040124510F0BCB
:10351000EA6AA60FE96E050EEA22EF9209D00401CD
:1035200024510F0BEA6AA40FE96E050EEA22EF920E
:103530003B0E006EDECFE9FFDDCFEAFF0050EF1655
:10354000020EE66EE66ADECFE6FFDDCFE6FF050E91
:10355000E66EE66A1FEC13F0006E060EE15E0050A8
:1035600008D03B0E006EDECFE9FFDDCFEAFF005052
:10357000EF16040124510F0B016A6A0F006E0F0E43
:103580000122030E00C0DBFF040E01C0DBFF030EAF
:10359000DBCFE9FF040EDBCFEAFFEF90050EE15C25
:1035A00002E2E16AE552E16EE552E7CFD9FF12008F
:1035B0000501AA5154E10501010EAA6F0501AB51A5
:1035C0004EE10501010EAB6F020E0501905D0DE1AC
:1035D0008BC5E9FF8CC5EAFFEE52EF6A8BC5E9FFA8
:1035E0008CC5EAFFC80EEF6E3AD00501900537E1B1
:1035F0000501A36B83C5E9FF84C5EAFFEE52080EFF
:10360000EF6E83C5E9FF84C5EAFF020EE926000ECE
:10361000EA22200EEE6E040EED6E83C5E9FF84C52E
:10362000EAFF840EEF6E0501010EA36F85C5E9FF69
:1036300086C5EAFFEE52080EEF6E85C5E9FF86C526
:10364000EAFF020EE926000EEA22200EEE6E040EBC
:10365000ED6E85C5E9FF86C5EAFF800EEF6E1200AC
:103660000501AC6B0501AD6B020E0501905D1AE121
:1036700085C5E9FF86C5EAFFEE52080EEF6E85C5E7
:10368000E9FF86C5EAFF020EE926000EEA22280EAF
:10369000EE6E040EED6E85C5E9FF86C5EAFFC80E25
:1036A000EF6E20D0050194510401265D050195516E
:1036B0000401275904E226C494F527C495F552D98C
:1036C0008BC5E9FF8CC5EAFF020EE926000EEA224F
:1036D000280EEE6E040EED6E8BC5E9FF8CC5EAFF79
:1036E000C80EEF6E1200800E0401205D61E105013D
:1036F000C00E936F04012351030A35E0010A0DE067
:10370000030A01E052D005015C0E916F520E926FD8
:10371000120E0501946F956B4BD004012251F66E89
:10372000F76AD890F636F736E10EF626520EF722F3
:103730000900F5CF91F50A00F5CF92F5020E0501CB
:10374000F76A9125F66E9251F7220800F5CF94F5AD
:10375000030E0501F76A9125F66E9251F7220800D3
:10376000F5CF95F525D0030E0401225D1BE204017F
:103770002251F66EF76AD890F636F736E30EF62643
:10378000520EF7220900F5CF91F50A00F5CF92F518
:1037900091C5F6FF92C5F7FF0800F5500501946F3B
:1037A000956B02D00501936B03D00501936B00D09C
:1037B0001200D9CFE6FFE1CFD9FF020EE1260401C6
:1037C000286B0401296B040120511F0B020A10E031
:1037D000030A0BE0010A01E043D00501938F0501C4
:1037E0009F0502E1040128833BD00501938F38D067
:1037F0000501938F040124BF11D0040124510F0B44
:10380000E96EEA6AD890E936EA36870EE926050EAF
:10381000EA22EECFDEFFEDCFDDFF10D00401245110
:103820000F0BE96EEA6AD890E936EA368B0EE92684
:10383000050EEA22EECFDEFFEDCFDDFFDECFE9FFA2
:10384000DDCFEAFFEF50800B0AE0DECFE9FFDDCFEE
:10385000EAFFEF50040B03E00401010E286F00D0D3
:10386000050193AF0AD00501280E916F040E926FE7
:10387000050193810501020E946F020EE15C02E2E4
:10388000E16AE552E16EE552E7CFD9FF1200609898
:10389000050193BF2FD0050198AF0CD00501020E92
:1038A000906F0501AD5101E1DBDE0501AB6B050158
:1038B000AA6B1FD085C5E9FF86C5EAFFEE52080E48
:1038C000EF6E85C5E9FF86C5EAFF020EE926000E08
:1038D000EA22200EEE6E040EED6E85C5E9FF86C568
:1038E000EAFF8C0EEF6E8BC5E9FF8CC5EAFF840EF4
:1038F000EF6E37D0040120AF10D00501010E906F9C
:103900000501AC5101E1ACDE0501AB6B0501AA6B11
:103910000501A95101E14CDE24D00501020E906F92
:1039200085C5E9FF86C5EAFFEE52080EEF6E85C534
:10393000E9FF86C5EAFF020EE926000EEA22200E04
:10394000EE6E040EED6E85C5E9FF86C5EAFF840EB6
:10395000EF6E0501AB6B0501AA6B0501A95101E1F1
:1039600027DE1200D9CFE6FFE1CFD9FFE652080EDD
:10397000DF6E0501080E945D000E95590FE294C5A7
:10398000DFFF05018F5104E10501010E8F6F06D0A5
:1039900005018F0503E10501020E8F6FDF50006EF8
:1039A000016A00500501945D0501946F0150050105
:1039B00095590501956F8BC5E9FF8CC5EAFFEE525D
:1039C000DFCFEFFF0501280E9D6F040E9E6F0501EE
:1039D00093B11BD0DF5018E0050191C5F6FF92C5E9
:1039E000F7FF912B000E92230800F550E66E0501BB
:1039F0009DC5E9FF9EC5EAFF9D2B000E9E23E55263
:103A0000E750EF6EDF06E6D719D0DF5017E005016B
:103A100091C5E9FF92C5EAFF912B000E9223EF506A
:103A2000E66E05019DC5E9FF9EC5EAFF9D2B000ED0
:103A30009E23E552E750EF6EDF06E7D7E552E552E9
:103A4000E7CFD9FF1200D9CFE6FFE1CFD9FF020EB1
:103A5000E12683C5E9FF84C5EAFFEE52EFCFDFFF21
:103A6000DFCF00F000500501995D000E9A5902E287
:103A700099C5DFFFDF50006E016A00500501995DB6
:103A80000501996F015005019A5905019A6F010EC0
:103A9000DB6ADF50F36E010EDBCFF4FFF350F45C12
:103AA00017E2010EDB50EA6A280FE96E040EEA22E3
:103AB000EF50E66E050196C5E9FF97C5EAFF962B24
:103AC000000E9723E552E750EF6E010EDB2AE1D797
:103AD0000501000ED8809955000E9A5528E285C53B
:103AE000E9FF86C5EAFFEE52080EEF6E85C5E9FFD5
:103AF00086C5EAFF020EE926000EEA22280EEE6EC7
:103B0000040EED6E83C5E9FF84C5EAFFEF50400B5C
:103B100007E185C5E9FF86C5EAFFC80EEF6E06D04E
:103B200085C5E9FF86C5EAFF880EEF6E2AD085C5F8
:103B3000E9FF86C5EAFFEE52080EEF6E85C5E9FF84
:103B400086C5EAFF020EE926000EEA22200EEE6E7E
:103B5000040EED6E85C5E9FF86C5EAFF840EEF6EA3
:103B600005019B519C1107E005D09CC5FAFF05019A
:103B70009B51F96EFADF0501989F0501A95101E1FA
:103B800017DD020EE15C02E2E16AE552E16EE55208
:103B9000E7CFD9FF1200D9CFE6FFE1CFD9FFE65238
:103BA0000501938F010EE66EE66AE66A6B0EE66E1D
:103BB0000F0EE66EC5EC29F0006E050EE15E0050BA
:103BC000DF6ADF50006E016A080E005C000E0158CB
:103BD00010E2DF50040DF3CFE9FFF4CFEAFF000E4F
:103BE000E926040EEA22EE6AEE6AEE6AEE6ADF2A3F
:103BF000E8D7608CDF6A020EDF5C10E2DF50EA6A11
:103C0000A40FE96E050EEA22EF6ADF50EA6AA60FFA
:103C1000E96E050EEA22EF6ADF2AEDD7010EE66EA5
:103C2000E66AE66A820EE66E050EE66EC5EC29F0DF
:103C3000006E050EE15E0050609C0501080E8B6F62
:103C4000040E8C6F0501000E836F040E846F83C514
:103C500085F584C586F522C481F50501815104E10D
:103C60000501100E806F13D0010EE66EE66A810E1C
:103C7000E66E050EE66E010EE66EE66A1FEC13F0C8
:103C8000006E060EE15E00500501200E806FE552C9
:103C9000E552E7CFD9FF1200D9CFE6FFE1CFD9FF38
:103CA000020EE126000EDE6E040EDD6EFD0EDB5010
:103CB000E824026EFE0EDB50040DF3500224040DC6
:103CC000F3CF00F0F4CF01F0D9CFE9FFDACFEAFF6C
:103CD0000050EE260150ED22DECFE9FFDDCFEAFFF6
:103CE000EF9EFD0EDB500FE1FE0EEA6ADB34FE0BA9
:103CF000EA36E96E870EE926050EEA22DECFEEFFF0
:103D0000DDCFEDFF0ED0FE0EEA6ADB34FE0BEA36A5
:103D1000E96E8B0EE926050EEA22DECFEEFFDDCF3F
:103D2000EDFFDECFE9FFDDCFEAFFEF9CDECFE9FF5D
:103D3000DDCFEAFF040EE926000EEA22EF8C020E28
:103D4000E15C02E2E16AE552E16EE552E7CFD9FFBC
:103D50001200D9CFE6FFE1CFD9FF020EE126FD0E1A
:103D6000DBA407D0E66AFE0EDBCFE6FF95DFE55267
:103D7000E552FD0EDBA208D0010EE66EFE0EDBCF93
:103D8000E6FF8ADFE552E552FE0EDB50016A6A0F5C
:103D9000006E0F0E012200C0DEFF01C0DDFFDECF8E
:103DA000E9FFDDCFEAFFFD0EDBCFEFFF020EE15CA6
:103DB00002E2E16AE552E16EE552E7CFD9FF120077
:103DC000D9CFE6FFE1CFD9FF020EE126FE0EDB5090
:103DD00020E185C5E9FF86C5EAFFEE52080EEF6EC9
:103DE00085C5E9FF86C5EAFF020EE926000EEA2234
:103DF000200EEE6E040EED6E85C5E9FF86C5EAFF66
:103E00008C0EEF6E8BC5E9FF8CC5EAFF840EEF6E5A
:103E10003DD0FD0EDB50E824026EFE0EDB50040D9B
:103E2000F3500224040DF3CF00F0F4CF01F0000EA4
:103E30000026040E012200C0DEFF01C0DDFF840E5B
:103E4000006EDECFE9FFDDCFEAFF0050EF12FD0E7E
:103E5000DB50E824026EFE0EDB50040DF35002240A
:103E6000010F040DF3CF00F0F4CF01F0000E002697
:103E7000040E012200C0DEFF01C0DDFF840E006ED3
:103E8000DECFE9FFDDCFEAFF0050EF12020EE15C6A
:103E900002E2E16AE552E16EE552E7CFD9FF120096
:103EA000D9CFE6FFE1CFD9FF020EE126FD0EDB50B0
:103EB0000FE0FE0EEA6ADB34FE0BEA36E96E8B0E8B
:103EC000E926050EEA22EECFDEFFEDCFDDFF0ED0B4
:103ED000FE0EEA6ADB34FE0BEA36E96E870EE9264F
:103EE000050EEA22EECFDEFFEDCFDDFFD9CFE9FFF1
:103EF000DACFEAFFEE50ED1003E1F36AF46A49D03D
:103F0000DECFE9FFDDCFEAFF020EE926000EEA224E
:103F1000FB0EDBCFEEFFFC0EDBCFEDFFDECFE9FFCC
:103F2000DDCFEAFFEE52FA0EDBCFEFFF400E006E60
:103F3000DECFE9FFDDCFEAFF0050EF16880E006EFE
:103F4000DECFE9FFDDCFEAFF0050EF12FD0EDB50C0
:103F50000CE0FE0EEA6ADB34FE0BEA36E96E8B0EED
:103F6000E926050EEA22EF740BD0FE0EEA6ADB3476
:103F7000FE0BEA36E96E870EE926050EEA22EF749B
:103F8000DECF00F0DDCF01F000C0F3FF01C0F4FF91
:103F900000D0020EE15C02E2E16AE552E16EE55218
:103FA000E7CFD9FF1200D9CFE6FFE1CFD9FF60A854
:103FB0004ED0FE0EEA6ADB34FE0BEA36E96E8B0E5B
:103FC000E926050EEA22EE50EFCFEAFFE96E400E39
:103FD000EE16EE6AEE6AEE6AFE0EEA6ADB34FE0B5D
:103FE000EA36E96E8B0EE926050EEA22EE50EFCF97
:103FF000EAFFE96EEE7CFE0EEA6ADB34FE0BEA367F
:10400000E96E8B0EE926050EEA22EF74400E006E73
:10401000FE0EEA6ADB34FE0BEA36E96E8B0EE92609
:10402000050EEA22EE50EFCFEAFFE96E0050EF16E0
:10403000FE0EEA6ADB34FE0BEA36E96E8B0EE926E9
:10404000050EEA22EE50EFCFEAFFE96EEF7CE55273
:10405000E7CFD9FF1200606A646A0501806B00D067
:1040600012000501805113E1606A646A160E626EE7
:104070009F0E666E7B0E646ED08EA584A384F28E36
:1040800060B602D06086FCD70501010E806F120079
:104090000001B56B8B8E8A94010EE66EDFEC29F081
:1040A000E5528A84010EE66EDFEC29F0E55275D9FF
:1040B0008D0EE66E2A0EE66ED1D8E552E5523E0E22
:1040C000E66E2B0EE66ECAD8E552E5521E0EE66E7F
:1040D0002D0EE66EC3D8E552E552E66A2C0EE66E6A
:1040E000BDD8E552E552700EE66E260EE66EB6D8E5
:1040F000E552E552400EE66E150EE66EAFD8E5527B
:10410000E5523D0EE66E110EE66EA8D8E552E55278
:1041100023D91200BF0EE66E050EE66E47D8E552B3
:10412000E55201080DE10001B50503E14FEC27F070
:1041300006D0020E0001B55D02E1C3EC27F00AD003
:104140000501BF6B0501C06B0501C16B0501C26BA9
:104150000501C36B22D98D0EE66E2A0EE66E7ED85F
:10416000E552E5523E0EE66E2B0EE66E77D8E5522E
:10417000E5521E0EE66E2D0EE66E70D8E552E55243
:10418000E66A2C0EE66E6AD8E552E552400EE66EFF
:10419000150EE66E63D8E552E5523D0EE66E110E41
:1041A000E66E5CD8E552E552D7D81200D9CFE6FFCB
:1041B000E1CFD9FFE652FD0EDBCFE6FFFE0EDBCFEF
:1041C000E6FF260EE66E12D9E552E552E552DF6EA5
:1041D000DF040AE1FD0EDBCFE6FFFE0EDBCFE6FFDC
:1041E000B1DAE552E552DF6E0BEC27F0DF5000D07C
:1041F000E552E552E7CFD9FF1200D9CFE6FFE1CF74
:10420000D9FFE652DF6A050EDF5C21E2DF50E76E80
:10421000FD0EDBCFE9FFFE0EDBCFEAFFE750E9261C
:10422000000EEA22EFCF00F0DF50E76EFB0EDBCF8F
:10423000E9FFFC0EDBCFEAFFE750E926000EEA2299
:10424000EF50005C02E0000E04D0DF2ADCD7010E44
:1042500000D0E552E552E7CFD9FF1200D9CFE6FFF3
:10426000E1CFD9FF8B9E010EE66E3BEC2AF0E552C2
:10427000FE0EDB50E8247E0BE76EFE0EE7CFDBFF81
:10428000FE0EDBCFE6FFA7EC29F0E552FD0EDBCFFB
:10429000E6FFA7EC29F0E5528B8EE552E7CFD9FF78
:1042A0001200D9CFE6FFE1CFD9FF8B9E010EE66E5B
:1042B0003BEC2AF0E552FE0EDB50E8247E0B800931
:1042C000E76EFE0EE7CFDBFFFE0EDBCFE6FFA7ECCF
:1042D00029F0E552F6EC29F00001616F8B8E0001A8
:1042E000615100D0E552E7CFD9FF1200D9CFE6FFE8
:1042F000E1CFD9FFFD0EDBCFE6FFFE0EDBCFE6FF01
:10430000D0DFE552E552E710E66EFE0EDBCFE6FFAA
:10431000A5DFE552E552E552E7CFD9FF1200D9CF2C
:10432000E6FFE1CFD9FFFD0EDB1C006E00C0E6FF0B
:10433000FE0EDBCFE6FFB5DFE552E552E7CF00F03A
:104340000014E66EFE0EDBCFE6FF88DFE552E55295
:10435000E552E7CFD9FF1200D9CFE6FFE1CFD9FF71
:10436000E652140EE66E9DDFE552DF6E030EDF149B
:1043700007E1030EE66E140EE66EB8DFE552E55275
:10438000E552E552E7CFD9FF1200030EE66E140E98
:10439000E66EC5DFE552E55212000F0EE66E010E25
:1043A000E66E5CDFE552E552010EE66E7ADFE5521D
:1043B000100B19E0010EE66E0DEC2AF0E552050136
:1043C000C52B000EC623C723C823E8680501C519FD
:1043D00006E1E868C61903E1C75101E1C85102E1ED
:1043E000000E03D0E1D7010E00D01200D9CFE6FFB6
:1043F000E1CFD9FF030EE126070EE66E0D0EE66E45
:104400002DDFE552E552FC0EDBCFE9FFFD0EDBCFE1
:10441000EAFFFE0EDBCFEFFFD950010FE66E000E74
:10442000DA20E66EFC0EDBCFE6FFFD0EDBCFE6FF0B
:10443000010EE66EFC0EDBCFE6FFFD0EDBCFE6FFE6
:104440000C0EE66E20D8006E080EE15E0050DF6EA6
:10445000DF040AE1D950010FE96EDACFEAFF100E4E
:10446000EE1801E1ED5001E0DF6ADF5000D0006E90
:10447000030EE15C02E2E16AE552E16E0050E552B2
:10448000E7CFD9FF1200D9CFE6FFE1CFD9FF070E62
:10449000E126DF6A010EDB6A020EDB6AFE0EDB50EC
:1044A0000C0A0CE0020A01E012D0DE52120EDD6EA0
:1044B000100EF36E020EF3CFDBFF0AD0DE52770E42
:1044C000DD6E300EF36E020EF3CFDBFF01D000D0B5
:1044D000010EDB508009E66E020EE66EBFDEE5528D
:1044E000E552800EE66E040EE66E19DFE552E552E7
:1044F000800EE66E0A0EE66EF9DEE552E552E66AD9
:10450000010EE66EABDEE552E552050EDB6A060EE5
:10451000DB6A050EDBCF00F0060EDBCF01F0FB0EF1
:10452000DB50026E036A0250005C035001581BE22C
:10453000050EDBCF00F0060EDBCF01F0FC0EDB50EA
:104540000024E96EFD0EDB500120EA6EEF50E66EAE
:10455000090EE66E83DEE552E552050EDB2A060EF5
:1045600001E3DB2AD6D7FE0EDBCFE6FF010EE66EB7
:1045700075DEE552E552FE0EDB500C0807E1800EB9
:10458000E66E0D0EE66EB2DEE552E552D00EF36E2B
:10459000050EF3CFDBFF070EF36E060EF3CFDBFF46
:1045A000040EE66E7EDEE552E76E040EE7CFDBFF1B
:1045B000050EDB06060E01E2DB06D950050FE96E9B
:1045C000DACFEAFFEE50ED100CE0040EDB50010BE9
:1045D00008E1020EDBCFE6FF040EDB50E552E714E4
:1045E000DFE0800EE66E0D0EE66E99DEE552E552D6
:1045F000D950050FE96EDACFEAFFEE50ED1001E178
:1046000093D0060EE66E4DDEE5521B0B01E08BD01B
:10461000010EDF6E010EDBCFE6FF040EDB50E5522C
:10462000E714010B02E0020EDF6EFE0EDB500C08F9
:1046300001E078D00A0EE66E34DEE552E76E040E35
:10464000E7CFDBFF0C0EE66E2CDEE552070BE76EC4
:10465000030EE7CFDBFF030EDB5015E0030EDBCFCD
:10466000E6FF040EDB04080DF350E552E724E66E86
:10467000F70EDBCFE9FFF80EDBCFEAFFE552E7509C
:10468000EE6EED6A0FD0040EDB50080DF350E66EAF
:10469000F70EDBCFE9FFF80EDBCFEAFFE552E7507C
:1046A000EE6EED6A040EDB5005E1010EF36E040EB2
:1046B000F3CFDBFF040EDB50100805E2100EF36EA3
:1046C000040EF3CFDBFF050EDB6A060EDB6A050E78
:1046D000DBCF00F0060EDBCF01F0040EDB50026EE4
:1046E000036A0250005C035001581CE2090EE66E9A
:1046F000D8DDE552E66E050EDBCF00F0060EDBCF0F
:1047000001F0F90EDB500024E96EFA0EDB500120B7
:10471000EA6EE552E750EF6E050EDB2A060E01E366
:10472000DB2AD5D701D0DF6ADF5000D0006E070E3C
:10473000E15C02E2E16AE552E16E0050E552E7CF4A
:10474000D9FF1200D9CFE6FFE1CFD9FF050EE12650
:10475000020EDB6AE66A0D0EE66E80DDE552E5527A
:10476000FD0EDBCFE9FFFE0EDBCFEAFF930EEF6E0F
:10477000010EE76EFD0EDBCFE9FFFE0EDBCFEAFF99
:10478000E750E926000EEA22200EEF6ED950030F03
:10479000E66E000EDA20E66EFD0EDBCFE6FFFE0EC3
:1047A000DBCFE6FF020EE66EFD0EDBCFE6FFFE0E70
:1047B000DBCFE6FF0C0EE66E66DE006E080EE15EF5
:1047C0000050DF6EDF0436E1010EDB6A040EF36E8B
:1047D000010EDBCFF4FFF350F45C18E2010EDB5066
:1047E000E76EFD0EDBCFE9FFFE0EDBCFEAFFE75001
:1047F000E926000EEA22020EDBCFE7FFEF50E71AB0
:10480000020EE7CFDBFF010EDB2AE0D7010EDB5003
:10481000E76EFD0EDBCFE9FFFE0EDBCFEAFFE750D0
:10482000E926000EEA22EF50F36E020EDB50F35C35
:1048300001E0DF6ADF5000D0006E050EE15C02E2AD
:10484000E16AE552E16E0050E552E7CFD9FF120070
:10485000D9CFE6FFE1CFD9FF020EE126040EE66EC6
:10486000050EE66E5CDDE552E552800EE66E0A0E40
:10487000E66E3CDDE552E552DF6AFC0EDB50DF5CA4
:1048800015E2DF50E76EFD0EDBCFE9FFFE0EDBCF5A
:10489000EAFFE750E926000EEA22EF50E66E090E25
:1048A000E66EDCDCE552E552DF2AE7D7030EE66E62
:1048B000010EE66ED3DCE552E552DF68050EE66ECA
:1048C000F0DCE552E76E010EE7CFDBFFDF06DF50DD
:1048D00004E0010EDB50040BF1E0220EE66EE1DC99
:1048E000E552E66EFA0EDBCFE9FFFB0EDBCFEAFF07
:1048F000E552E750EF6E210EE66ED3DCE552E66E30
:10490000010EE76EFA0EDBCFE9FFFB0EDBCFEAFF0D
:10491000E750E926000EEA22E552E750EF6E020E5C
:10492000E15C02E2E16AE552E16EE552E7CFD9FFD0
:104930001200D9CFE6FFE1CFD9FF0E0EE126930E8C
:10494000F36E050EF3CFDBFF700EF36E060EF3CFA2
:10495000DBFF010EDB6A050EF36E010EDBCFF4FF09
:10496000F350F45C23E2010EDB50E76EFD0EDBCF6B
:10497000E9FFFE0EDBCFEAFFE750E926000EEA2250
:10498000EF50E66ED950050F006EDACF01F0010E40
:10499000DB50020F0F010024E96E000E0120EA6EC9
:1049A000E552E750EF6E010EDB2AD5D7D9500C0F38
:1049B000E66E000EDA20E66E070EE66ED950050FA1
:1049C000E66E000EDA20E66E43DF006E050EE15E55
:1049D0000050D950030FE66E000EDA20E66ED95073
:1049E000050FE66E000EDA20E66E090EE66ED9506F
:1049F000050FE66E000EDA20E66E0C0EE66E43DD65
:104A0000006E080EE15E0050DF6EDF0411E1D95048
:104A1000030FE96EDACFEAFF180EEE1801E1ED5050
:104A200007E1050EDB50E76E020EE7CFDBFF02D099
:104A3000020EDB6A020EDB5000D0006E0E0EE15C4F
:104A400002E2E16AE552E16E0050E552E7CFD9FF9C
:104A50001200D9CFE6FFE1CFD9FF100EE126FE0EFE
:104A6000DB50E76E040EE7CFDBFFFD0EDB50E76E99
:104A7000050EE7CFDBFF030EDB6A060EF36E030EB7
:104A8000DBCFF4FFF350F45C23E2030EDB50E76E60
:104A9000FB0EDBCFE9FFFC0EDBCFEAFFE750E92698
:104AA000000EEA22EF50E66ED950040F006EDACF06
:104AB00001F0030EDB50020F0F010024E96E000E1F
:104AC0000120EA6EE552E750EF6E030EDB2AD5D7E0
:104AD000030EDB6A040EF36E030EDBCFF4FFF3501C
:104AE000F45C23E2030EDB50E76EF90EDBCFE9FF47
:104AF000FA0EDBCFEAFFE750E926000EEA22EF507C
:104B0000E66ED950040F006EDACF01F0030EDB50D1
:104B1000080F0F010024E96E000E0120EA6EE55235
:104B2000E750EF6E030EDB2AD5D7D950010FE66EA2
:104B3000000EDA20E66ED950040FE66E000EDA2081
:104B4000E66E0C0EE66ED950040FE66E000EDA200B
:104B5000E66E0E0EE66E97DC006E080EE15E00500B
:104B6000DF6EDF0407E1080EE66E51EC21F0E5523E
:104B7000080B01E1DF6ADF5000D0006E100EE15C2F
:104B800002E2E16AE552E16E0050E552E7CFD9FF5B
:104B90001200D9CFE6FFE1CFD9FF030EE126FC0ECC
:104BA000DBCFE9FFFD0EDBCFEAFF300EEF6E010E2B
:104BB000E76EFC0EDBCFE9FFFD0EDBCFEAFFE7502F
:104BC000E926000EEA22FE0EDBCFEFFF020EE76EB3
:104BD000FC0EDBCF00F0FD0EDBCF01F0E75000262E
:104BE000000E012200C0E6FF01C0E6FF020EE66EE5
:104BF000FC0EDBCFE6FFFD0EDBCFE6FF29DE026E0B
:104C0000050EE15E0250D950010FE66E000EDA206B
:104C1000E66EFC0EDBCFE6FFFD0EDBCFE6FF040EFB
:104C2000E66EFC0EDBCFE6FFFD0EDBCFE6FF0C0EE3
:104C3000E66E29DC006E080EE15E0050DF6EDF04D8
:104C40000AE1D950010FE96EDACFEAFF900EEE18B3
:104C500001E1ED5001E0DF6ADF5000D0006E030E8D
:104C6000E15C02E2E16AE552E16E0050E552E7CF15
:104C7000D9FF1200D9CFE6FFE1CFD9FF160EE1260A
:104C8000A00EF36E040EF3CFDBFFFE0EDB50E76EDB
:104C9000050EE7CFDBFFD950060FE66E000EDA20D7
:104CA000E66E020EE66ED950040FE66E000EDA20B4
:104CB000E66ECEDD006E050EE15E0050D950010FAC
:104CC000E66E000EDA20E66ED950040FE66E000E96
:104CD000DA20E66E040EE66ED950040FE66E000E82
:104CE000DA20E66E0C0EE66E43EC22F0006E080E43
:104CF000E15E0050DF6EDF040FE1D950010FE96E75
:104D0000DACFEAFF040EEE1801E1ED5005E1040EE2
:104D1000DB500F0B0A0801E0DF6ADF046EE1030ECF
:104D2000DB6A100EF36E030EDBCFF4FFF350F45C7E
:104D300022E2030EDB50E76EFC0EDBCFE9FFFD0E37
:104D4000DBCFEAFFE750E926000EEA22EF50E66EDD
:104D5000D950040F006EDACF01F0030EDB500F01C3
:104D60000024E96E000E0120EA6EE552E750EF6E76
:104D7000030EDB2AD6D7D950140FE66E000EDA20C8
:104D8000E66E100EE66ED950040FE66E000EDA20C5
:104D9000E66E5EDD006E050EE15E0050D950010F3B
:104DA000E66E000EDA20E66ED950040FE66E000EB5
:104DB000DA20E66E120EE66ED950040FE66E000E93
:104DC000DA20E66E0C0EE66E43EC22F0006E080E62
:104DD000E15E0050DF6EDF040FE1D950010FE96E94
:104DE000DACFEAFF040EEE1801E1ED5005E1040E02
:104DF000DB500F0B0A0801E0DF6ADF5000D0006EC5
:104E0000160EE15C02E2E16AE552E16E0050E55205
:104E1000E7CFD9FF1200D9CFE6FFE1CFD9FF060EC9
:104E2000E126500EF36E020EF3CFDBFF030EDB6ABA
:104E3000D950040FE66E000EDA20E66E020EE66E22
:104E4000D950020FE66E000EDA20E66E01DD006E2C
:104E5000050EE15E0050D9CFE6FFDACFE6FFD9506C
:104E6000020FE66E000EDA20E66E040EE66ED950F2
:104E7000020FE66E000EDA20E66E0C0EE66E43ECD4
:104E800022F0006E080EE15E0050060EE15C02E2C8
:104E9000E16AE552E16EE552E7CFD9FF1200800EDC
:104EA000E66E000EE66E260EE66EF6EC21F0E5529A
:104EB000E552E5520001916F800EE66E000EE66E3F
:104EC00041DCE552E5520001916F0001906B050E47
:104ED0000001905D16E200019051EA6A800FE96ED0
:104EE000000EEA22EF50E66E00019051EA6ABA0F16
:104EF000E96E050EEA22E552E750EF6E0001902BB5
:104F0000E6D7BA0EE66E050EE66E13DDE552E55203
:104F10000001916FBA0EE66E050EE66EAE0EE66EFD
:104F2000050EE66EB4C0E6FF600EE66E92DD006E22
:104F3000060EE15E00500001916F0001910521E134
:104F4000C50EE66E000EE66EB4C0E6FF22DEE55248
:104F5000E552E552D50EE66E000EE66E0001B4296C
:104F6000E66E17DEE552E552E552E50EE66E000EFE
:104F7000E66E020E0001B425E66E0BDEE552E55248
:104F8000E55249DF1200800EE66E000EE66E260E38
:104F9000E66EF6EC21F0E552E552E5520001916F24
:104FA000800EE66E000EE66EA2EC23F0E552E552AE
:104FB0000001916F0001906B050E0001905D16E2FB
:104FC00000019051EA6A800FE96E000EEA22EF506C
:104FD000E66E00019051EA6ABA0FE96E050EEA2208
:104FE000E552E750EF6E0001902BE6D7BA0EE66E61
:104FF000050EE66E9EDCE552E5520001916FBA0E99
:10500000E66E050EE66EAE0EE66E050EE66EB4C0FA
:10501000E6FF600EE66E1DDD006E060EE15E0050DE
:105020000001916F0001910528E10001B4510AE0EF
:10503000C50EE66E000EE66EB4C0E6FF1BDEE5525E
:10504000E552E552D50EE66E000EE66E0001B4297B
:10505000E66E10DEE552E552E5520001916FE50E75
:10506000E66E000EE66E020E0001B425E66E02DE6C
:10507000E552E552E5520001916FCDDE1200D9CF25
:10508000E6FFE1CFD9FFE652DF6A100EDF5C17E2E0
:10509000DF50EA6AC50FE96E000EEA22EF6ADF50C0
:1050A000EA6AD50FE96E000EEA22EF6ADF50EA6A7B
:1050B000E50FE96E000EEA22EF6ADF2AE6D7E55235
:0850C000E552E7CFD9FF120011
:0850C800040120511F0B010837
:1050D00001E074D00401245101E070D0060E0401F7
:1050E000215D2AE104012351230A25E0010A13E08E
:1050F000030A01E021D0050181050CE10501800EC4
:10510000916F520E926F090E0501946F956B050118
:10511000C00E936F11D0050181050CE10501C50E8C
:10512000916F520E926F1C0E0501946F956B0501E5
:10513000C00E936F01D000D004012051600BE842F3
:10514000E842E842E842E842010801E037D00401C1
:1051500021510B0A2DE0080A1EE0090A16E0080A90
:1051600007E00B0A04E0080A01E028D027D026D087
:105170000501EB0E916F050E926F010E0501946F04
:10518000956B0501C10E936F19D00501800E936FC9
:1051900023C4EBF513D00501EC0E916F050E926F51
:1051A000010E0501946F956B0501810E936F06D07A
:0E51B0000501800E936F22C4ECF500D01200B2
:0251BE00200EC1
:1051C000F66E100EF76E000EF86E05010900F55030
:1051D000E66F0900F550E76F03E1E66701D03DD0C7
:1051E0000900F550E16F0900F550E26F0900F55034
:1051F000E36F09000900F550E96E0900F550EA6E09
:10520000090009000900F550E46F0900F550E56F49
:1052100009000900F6CFE8F5F7CFE9F5F8CFEAF590
:10522000E1C5F6FFE2C5F7FFE3C5F8FF0501E4536A
:1052300002E1E55307E00900F550EE6EE407F8E2FD
:10524000E507F9D7E8C5F6FFE9C5F7FFEAC5F8FFB6
:0C5250000501E607000EE75BBFD7120067
:04525C001201000239
:1052600000000008D8042F0002000102000109021A
:105270002900010100C032090400000203000000FF
:10528000092111010001221C0007058103400001D2
:105290000705010340000104030904100349002D20
:1052A000004D0045004400490041001A03550053D9
:1052B0000042005F004D00690066006100720065F9
:1052C00000520057000600FF0901A1011901294001
:1052D000150125407508954081001901294091006C
:0952E000C06E5297529B52AB5272
:0652EA00D9CFE6FFDACF88
:1052F000E6FFE1CFD9FFE2CFDAFF3F0EC716C66A5D
:10530000FD0EDB50C612FB0EDB50C712FC0EDB504D
:10531000030A09E0010A04E0020A06E1C78C04D08E
:10532000C78CC68801D0C688FD0EDB50050A03E095
:10533000010A03E1928A938401D093949380939617
:0E534000C68AE552E5CFDAFFE7CFD9FF1200AB
:02534E00D9CFB5
:10535000E6FFDACFE6FFE1CFD9FFE2CFDAFFE65290
:10536000C950DF6E9E96C69EFD0EDB50C96EC6AE5E
:1053700002D0FF0E03D09EA6FED7000EE552E552E6
:0A538000E5CFDAFFE7CFD9FF1200F6
:06538A00FE0EE3CFE9FF77
:10539000FF0EE3CFEAFFE9CFF3FFEACFF4FFFB0E06
:1053A000E35003E1FC0EE35009E0FB0EE30602E2EA
:0E53B000FC0EE306FD0EE350EE6EF1D7120088
:0253BE00FF0EE0
:1053C000E350266EEF0E01D0F30EE76EE72EE6EF08
:1053D00029F00C0E256EE76AE72EECEF29F0252E5A
:0C53E000EBEF29F0262EE4EF29F012007C
:0453EC00D9CFE6FF30
:1053F000DACFE6FFE1CFD9FFE2CFDAFFE652C950BC
:10540000DF6E9E96C96A9EA6FED7C950E552E55248
:0A541000E5CFDAFFE7CFD9FF120065
:06541A00FF0EE350266EB8
:10542000480E01D04C0EE76EE72EFED7E76AE72E56
:0A543000FED7262EF7D70000120069
:06543A00000EF36E00EE0F
:1054400000F0080E01D81200EA6002D0EE6AFCD724
:0A545000F350E9601200EE6AFCD789
:06545A0013EE00F023EE4A
:1054600000F0F86A249CDFEC28F046EC2AF07BEC94
:0654700008F0FBD712005A
:0A547600FF0EE350E84E12000000A4
:0C54800000D000D000D0E82EFAD71200B7
:02548C0012000C
:02548E00FFFF1E
:10549000FFFFFFFFFFFFFFFFFFFF00000000000016
:0954A00000000000000000000003
:0754A90000000000010000FB
:1054B00000000000000000000000000000000000EC
:0154C00000EB
:020000040030CA
:0100000021DE
:0100010008F6
:010002001FDE
:010003003EBE
:01000500D129
:010006008178
:00000001FF
