:020000040000FA
:06000000FDEF06F0120006
:0400080004EF08F009
:080018000CEF08F018EF00F0F6
:0E00200001002E000000F004000002000000AD
:02002E000000D0
:10003000F26A13EE00F023EE00F0F86AFC6A30EC8E
:1000400007F0040057EC03F04DEC07F05FEC07F00D
:0800500036EC00F0F6D71200B7
:080058000001E16BE569E669B6
:10006000E769E869E46B010EE96F1200060E03010F
:10007000775D01E0AAD16050020B01E0120000019F
:10008000E1511EE104010CBFA0D10001400EFF6F41
:100090000001600EFD6F000EFE6FCCEC06F000015B
:1000A000010EE16FEA6B400EEA5D01E38ED1EA5189
:1000B000EA6AAC0FE96E040EEA22EF6AEA2BF3D784
:1000C00000016051080A01E17DD1040A01E13DD13E
:1000D000050A01E138D10E0A01E1F8D0010A01E177
:1000E000EED0030A01E18CD0010A4CE0070A40E09F
:1000F000010A01E068D1040110BF67D10401020EBA
:10010000AC6F3A0EAD6F010EAE6FAF6FB06B100EED
:10011000B16FB26BB36BB46B700EB56FB66BB76B80
:10012000030EB86FB96BBA6B300EBB6FBC6B0E0EA3
:10013000BD6FBE6BBF6BC06B040EC16FC26BC36B78
:10014000200EC46FC56B080EC66FC76BC86BC96B3A
:10015000020ECA6FCB6BCC6BF00ECD6FCE6BCF6B3C
:10016000010ED06FD16BD26BD369A50EE56FE8D0CD
:100170000001010EE96F0001615101E020D1000191
:10018000E96B1DD1400E0001E26FE36B000EE25DF2
:10019000020EE35917E2E1EC05F0E2C0F6FFE3C01E
:1001A000F7FF060ED890F636F736E804FBE1F86A5A
:1001B000940EA66E4EDA57EC03F00001E22B000E0F
:1001C000E323E4D7EA6BEAC0A9FFA868040EA66E91
:1001D00057EC03F03EDA0001EA51EA2B006E016AA7
:1001E000026AFF0E005C000E0158000E0258EBE39D
:1001F000200EF86EF76AF66A940EA66E2ADADFD041
:10020000300E635D06E10001E95101E0D8D0BCD9B0
:10021000D6D0F00E635D02E1DDD9D1D0E8680001EF
:10022000E51911E1E868E6190EE1E868E7190BE164
:10023000E868E81908E161C0E5F062C0E6F063C073
:10024000E7F064C0E8F0E50EE96E000EEA6EEE50ED
:100250000001611901E0B3D0EE50621901E0AFD0A6
:10026000EE50631901E0ABD0EE50641901E0A7D065
:1002700001E0A5D00001EA6B000165510001EA5DD3
:1002800001E39DD0DED9660FE96E000EEA22EF5041
:10029000E66EE451EA6AA10FE96E000EEA22E55229
:1002A000E750EF6EE42BE52B000EE623E723E8236F
:1002B000200EE45D01E1F9D80001EA2BDDD7F5D885
:1002C0000001E569E669E769E8697AD00401070E8B
:1002D000AC6F61C0ADF462C0AEF463C0AFF464C093
:1002E000B0F465C0B1F461C0EBF062C0ECF00001A5
:1002F000EA6B000165510001EA5D1FE2F00E0001AA
:10030000635D0AE161510001EA25A96EA66AA68033
:10031000A5D9A8CFEFFF0FD00001EBC0F6FFECC0CE
:10032000F7FFEB2B000EEC230800F550E66E96D994
:10033000E552E750EF6EEA2BDCD7040110BF45D041
:100340000001400E34D042D83AD004010C0EAC6FFC
:10035000020EAD6F010EAE6F160EF66E100EF76E3A
:100360000900F5CFAFF40A00F5CFB0F4060EB16F77
:10037000100EB26FB36BB46B0D0EB56F600EB66F2F
:10038000400EB76FB86BB96BBA6BBB69BC69BD691E
:10039000BE69BF6BC069C169C26BC369C469C56905
:1003A000C669C769C869040110BF0FD00001FB6F9F
:1003B0000001AC0EF96F040EFA6FA6EC06F0000116
:1003C000E16B12006CD80001E16B12000001EE6BD2
:1003D000100EEF6F0001ED6B400E0001ED5D18E2B5
:1003E0000001EEC0F6FFEFC0F7FFEE2B000EEF238B
:1003F0000800F550E66E0001ED51EA6AA10FE96EC2
:10040000000EEA22E552E750EF6E0001ED2BE4D733
:1004100000010D0EA76F0001600EA86FF86A100EA4
:10042000F76EF66A940EA66E0001B50EF56FF2D85F
:1004300000013F0EEE6F100EEF6F00013F0EED6FEB
:10044000EEC000F0EFC001F0026A036A00C0F6FFE0
:1004500001C0F7FF02C0F8FF0001ED51EA6AA10FE9
:10046000E96E000EEA22EF50F56E0C000001ED512E
:100470001F0B08E1E1EC05F0A40EA66E0001B50E1D
:10048000F56FC8D80001EE07000EEF5B0A0000010F
:10049000ED5101E103D00001ED07D2D71200CDEC00
:1004A00005F0FF00000000001200E4C004F0056A3F
:1004B000066A076A04500001E55D006E0550000100
:1004C000E659016E06500001E759026E075000011F
:1004D000E859036E00C0F6FF01C0F7FF02C0F8FF45
:1004E0000001F16B1F0EF6140001F26FE00EF6161C
:1004F0000001F06B200E0001F05D1FE20001F251DF
:1005000015E10001E4510FE00001F151EA6AA10F89
:10051000E96E000EEA22EF50F56E0D000001F12B9E
:100520000001E40702D0F5680D0004D0F5680D0065
:100530000001F2070001F02BDDD70A00A40EA66E21
:100540000001B50EF56F66D80001F06B0001E451B3
:100550000001F05D18E20001F1510001F025EA6AA6
:10056000A10FE96E000EEA22EF50E66E0001F05195
:10057000EA6AA10FE96E000EEA22E552E750EF6E3B
:100580000001F02BE3D7120061C0F6FF62C0F7FF55
:1005900063C0F8FF0001F36B000165510001F35DDA
:1005A00018E23A0E0001D88065550001F325EA6A89
:1005B000660FE96E000EEA22EF50F56E0C00C40ED5
:1005C000A66E0001B50EF56F25D809000001F32BCA
:1005D000E3D712000001F46B000165510001F45DE6
:1005E00018E2000161510001F425A96E3A0E0001E4
:1005F000D88065550001F425EA6A660FE96E000EA1
:10060000EA22EF50A86E040EA66E23D80001F42B48
:10061000E3D71200F29E5FEC07F0B50E0001F55D26
:1006200005E0030ED36E0300FED7FF00550EA76E44
:10063000AA0EA76EA682A6B2FED7A6941200090043
:1006400012003A0E0001D88065550001EA25EA6AD9
:1006500012000001B50EF56F0AEF03F0F2DFB20FE2
:08066000E96E040EEA2212000B
:0806680060B697DA03017E6B16
:1006700050EF03F003017E0501E18FDA606A150E89
:10068000626E646A608691D80301010E776F7E6B9B
:1006900012006092606A0301776B010E7E6F120098
:1006A00003017E0501E1120060A6E4DF1200F8DF1D
:1006B0000301775101E1120065B46ED860B21200F7
:1006C00065B073D865B859D8030E0301775D01E2B0
:1006D0001200606B040E605D4FE265A64DD061CFE5
:1006E0007BF37C0E61143EE161B204D0000E7F6F9B
:1006F000040E03D0040E7F6F040E806F65967FC3D7
:10070000E9FFEA6EEF503C0BE842E8420D0831E1A8
:10071000816B8151006E016A080E005C000E015869
:100720001FE27FC3E9FF80C3EAFF020EE926000E45
:10073000EA22EECFF3FFEDCFF4FFEE2AEF22F3CF64
:10074000E9FFF4CFEAFFEF50E66E8151EA6A6A0FE3
:10075000E96E030EEA22E552E750EF6E812BD9D7FE
:1007600041D807D0040E615C03E1659657D801D0EB
:1007700065960301602BAED7120064CF82F3040E9E
:10078000646E65986082A494A38466EC07F0A394D9
:10079000030182516412120060EC07F060926494CD
:1007A00065A402D06594FCD712000301030E776F95
:1007B000666A656A7B0E646E636A30DA160E6A6E6C
:1007C000608C65A603D06596FCD9FBD7609C6098C9
:1007D0000301040E736F0ADA786B796B0401EF6B17
:1007E00071EF07F00401086B0301696B040100AFAE
:1007F00003D0006B0301726B040104AF04D0046BDF
:100800000301010E726F0301616B626B676B686BB2
:1008100060989FD879EC07F061EF04F0040E0301B3
:10082000775D09E16CC363FF6350000802E2050EC7
:1008300001D0030E776F610512E112D8020E030199
:10084000695D05E10401040E086F088F12000401C0
:1008500008BD02D0480E01D0080E086F088F1200A4
:100860000301080E836F675D000E68590AE267C3D3
:1008700083F3695102E1010E03D0690502E1020E22
:10088000696F83C309F48351006E016A0050675F8A
:100890000150685B240E656F040E666F78A306D066
:1008A00083510EE0CBD98FD9C1D9FAD7835108E053
:1008B00063C3E9FF64C3EAFFEF5085D9B7D9F6D720
:1008C0001200030162510EE10401040E086F088F4B
:1008D0000301736F720504E19CD90301726B12006E
:1008E000F6EF05F06AAF1CD0010E616F6751705DC5
:1008F0006851715904E270C367F371C368F3B0DFE4
:100900000301480E736F85D90301856B22D9040159
:10091000240E0A6F040E0B6F480E086F088F12002A
:10092000020E616F040E736F7051711102E1480E77
:10093000736F720504E16DD90301726B01D056D952
:100940007051711105E10401096B480E086F088FA1
:10095000120003016A51600BE842E842E842E842B3
:10096000E842000901E012006B51070A41E00B0A5E
:100970003FE0070A32E0010A23E00B0A1FE0020A07
:100980001DE0030A19E0080A10E0010A0CE00F0A52
:1009900008E0030A01E01200010E626F040E776F97
:1009A0001200F9EF04F02FEF05F0010E626F790EDF
:1009B000636F030E646F0DD04EEF05F07DEF05F011
:1009C000010E626F6E51636F646B7A0E6327030EC4
:1009D00064237893010E676F1200010E626F6E51EF
:1009E000EA6A7A0FE96E030EEA226CC3EFFF120087
:1009F0001200800E03016A5D31E16D51030A18E0B7
:100A0000010A0BE0030A29E1010E626FF60E636F23
:100A10000E0E646F120E676F20D0010E6C5D1DE22A
:100A2000010E626F080E636F0F0E646F290E13D0F4
:100A3000010E626F6C51F66EF76AD890F636F73693
:100A4000AC0EF6260F0EF7220900F5CF63F30A006D
:100A5000F5CF64F3F3D8676F686B788312000301F6
:100A6000010E626FDBD8846B010E845D09E2845154
:100A7000EA6A7A0FE96E030EEA22EF6A842BF4D752
:100A80006CC379F36CC3EFF471EC07F003016C51A4
:100A900002E1050E01D0060E776F12000401246BEF
:100AA000256B03016A511F0B020A11E0030A0CE0D7
:100AB000010A18E1010E626F04012481030178A18B
:100AC00011D0040124830ED0010E626F0BD080D8A8
:100AD00001E0010E92D877D8EF50040B03E0040137
:100AE000010E246F0301620507E1240E636F040EFB
:100AF000646F7893020E676F120003016C050CE1BE
:100B00006A511F0B000908E1010E626F030E6B5D55
:100B100002E1788101D078916C511AE16A511F0B82
:100B2000020816E16E510F0B000912E051D801E0E6
:100B3000010E63D8030E6B5D03E1040E25EF06F092
:100B40006EAF04D0400E3FD8EF6E1200080E7DD875
:100B500012000301080E746F1C0E756F040E766F81
:100B6000855107E1140E756F040E766F866B040EC7
:100B700002D0040E866F876F86C3E9FFEA6E73C3E7
:100B8000EEFF74C3EEFF75C3EEFF76C3EEFF86C3C0
:100B9000E9FF87C3EAFFEF8E12006092606A0301EB
:100BA0008869896903D80301776B120003018851B2
:100BB000891106E006D803018807000E895BF6D785
:100BC00012000400120065C3E9FF66C3EAFF1200C9
:100BD000010E626F6E510F0B080DF350016A000F8A
:100BE000006E040E01226E51800B12000301856B12
:100BF000B0DF0301010E726F1200040DF3500024E8
:100C0000656F000E0120666F040E6527000E6623D7
:100C100012000301010E856FA9EF05F06B6A6C6A83
:100C20006D6A6E6A6F6A706A716A1200EF6E652B88
:100C3000000E6623632B64238307120063C3F6FF51
:100C400064C3F7FF0800F5501200BDDFEF6EBBDF95
:040C5000EF8E120011
:0C0C540003016A511F0B010801E01200AF
:100C60006E5101E01200060E6B5D21E16D51230A09
:100C70001CE0010A0AE0030A18E1BBD803011A0EBE
:100C8000636F0F0E646F090E0DD0B3D803017905A1
:100C900005E103018F0E636F0F0E646F0301790589
:100CA00004E11D0E0301676F686B03017883030184
:100CB0006A51600BE842E842E842E842E842010833
:100CC00001E012006B510B0A25E0080A17E0090A3F
:100CD00011E0080A09E00B0A05E0080A01E0120029
:100CE0008EEF06F08FEF06F084D80301F60E636FE7
:100CF000000E09D07ED86DC3F6F012007AD8030139
:100D0000F70E636F000E646F030178930301010E09
:100D1000676F12006ED86CC3F7F012001200120059
:100D20000001F86B1E0E6B6E0401400E0D6F2C0E51
:100D30000E6F040E0F6F080E0C6F0C8F04016C0EFB
:100D4000126F040E136F400E106F12000001FB5162
:100D5000400802E2400EFB6FFC6BFB51FC5D13E2AE
:100D6000FC51EA6AF925E96EFA51EA22EF50E66E83
:100D7000FC51EA6A6C0FE96E040EEA22E552E75074
:100D8000EF6EFC2BEAD7FBC011F4400E04011017E4
:100D9000107D1087108F12000001F86B04010CBF4A
:100DA00025D00D510001D880FF5502E20DC4FFF09F
:100DB000F86BFF51F85D13E2F851EA6A2C0FE96E07
:100DC000040EEA22EF50E66EF851EA6AFD25E96E5C
:100DD000FE51EA22E552E750EF6EF82BEAD7040104
:100DE000400E0D6F0C170C7D0C870C8F0001F85115
:0A0DF00012000301020E626F1200F0
:060DFA000F013F0E5C6FCB
:100E0000938E938CA66AA96AA680550EA85C03E10E
:100E100018EC00F002D000EF08F0060EF66E100E8F
:100E2000F76E0900F5CF00F00800F5CF01F00D0EC8
:100E3000001802E1600E011810E1F66A100EF76E5C
:100E40000900F5CF00F00800F5CF01F00001001C0B
:100E500001E1011C02E000EF08F018EC00F01200C4
:100E6000800E9B6E700ED36E100ED26ED2AEFED779
:100E7000B50EE96E0F0EEA6E900EEF6E0F015B6B12
:100E80005C6B5D6B8988898E8B9234EC03F02CEC63
:100E900000F0899E929E34EF03F00401F007000EEB
:100EA000F15BF051F1110AE1F06B4E0EF16F060E9D
:100EB0000301775D02E2898E1200897E1200120022
:100EC0000301886B030E896FD6EF05F0899E03003E
:100ED000A450040B05E1D050080B02E10300F8D741
:100EE00012000401EF0504E190EC06F02CEC00F098
:060EF00012002AEF06F0DB
:0A0EF6001201000200000008D804F9
:100F00003C000101010200010902290001010080E9
:100F10003209040000020300000009211101000150
:100F2000221D000705810340000107050103400061
:100F3000010403090434034D006900630072006F6B
:100F400000630068006900700020005400650063C1
:100F50000068006E006F006C006F00670079002071
:100F60000049006E0063002E00260348004900443B
:100F7000002000550053004200200042006F006F27
:100F80000074006C006F0061006400650072000670
:100F900000FF0901A10119012940150026FF007574
:100FA0000895408100190129409100C0310F350F8B
:020FB000690FC7
:0E0FB200000EF36E00EE00F0080E01D81200E3
:100FC000EA6002D0EE6AFCD7F350E9601200EE6AE4
:020FD000FCD74C
:021006000D607B
:020000040030CA
:0100000021DE
:0100010008F6
:010002001FDE
:010003003EBE
:01000500D129
:010006008178
:00000001FF
